{
  "contractName": "Market",
  "abi": [
    {
      "inputs": [],
      "stateMutability": "payable",
      "type": "constructor",
      "payable": true
    },
    {
      "anonymous": false,
      "inputs": [
        {
          "indexed": true,
          "internalType": "uint256",
          "name": "bidId",
          "type": "uint256"
        },
        {
          "indexed": true,
          "internalType": "address",
          "name": "bidder",
          "type": "address"
        },
        {
          "indexed": true,
          "internalType": "address",
          "name": "nftContractAdd",
          "type": "address"
        },
        {
          "indexed": false,
          "internalType": "uint256",
          "name": "tokenId",
          "type": "uint256"
        },
        {
          "indexed": false,
          "internalType": "uint256",
          "name": "price",
          "type": "uint256"
        }
      ],
      "name": "BidCancelled",
      "type": "event"
    },
    {
      "anonymous": false,
      "inputs": [
        {
          "indexed": false,
          "internalType": "uint256",
          "name": "bidId",
          "type": "uint256"
        },
        {
          "indexed": true,
          "internalType": "address",
          "name": "bidder",
          "type": "address"
        },
        {
          "indexed": true,
          "internalType": "address",
          "name": "nftContractAdd",
          "type": "address"
        },
        {
          "indexed": true,
          "internalType": "uint256",
          "name": "tokenId",
          "type": "uint256"
        },
        {
          "indexed": false,
          "internalType": "uint256",
          "name": "price",
          "type": "uint256"
        }
      ],
      "name": "BidPlaced",
      "type": "event"
    },
    {
      "anonymous": false,
      "inputs": [
        {
          "indexed": true,
          "internalType": "uint256",
          "name": "saleCount",
          "type": "uint256"
        },
        {
          "indexed": true,
          "internalType": "address",
          "name": "seller",
          "type": "address"
        },
        {
          "indexed": true,
          "internalType": "address",
          "name": "buyer",
          "type": "address"
        },
        {
          "indexed": false,
          "internalType": "uint256",
          "name": "price",
          "type": "uint256"
        }
      ],
      "name": "ItemSold",
      "type": "event"
    },
    {
      "anonymous": false,
      "inputs": [
        {
          "indexed": true,
          "internalType": "uint256",
          "name": "listingId",
          "type": "uint256"
        },
        {
          "indexed": true,
          "internalType": "address",
          "name": "owner",
          "type": "address"
        },
        {
          "indexed": true,
          "internalType": "address",
          "name": "nftContract",
          "type": "address"
        },
        {
          "indexed": false,
          "internalType": "uint256",
          "name": "tokenId",
          "type": "uint256"
        }
      ],
      "name": "ListingCancelled",
      "type": "event"
    },
    {
      "anonymous": false,
      "inputs": [
        {
          "indexed": true,
          "internalType": "uint256",
          "name": "listingId",
          "type": "uint256"
        },
        {
          "indexed": true,
          "internalType": "address",
          "name": "owner",
          "type": "address"
        },
        {
          "indexed": true,
          "internalType": "address",
          "name": "nftContract",
          "type": "address"
        },
        {
          "indexed": false,
          "internalType": "uint256",
          "name": "tokenId",
          "type": "uint256"
        },
        {
          "indexed": false,
          "internalType": "uint256",
          "name": "price",
          "type": "uint256"
        }
      ],
      "name": "ListingCreated",
      "type": "event"
    },
    {
      "stateMutability": "payable",
      "type": "fallback",
      "payable": true
    },
    {
      "inputs": [
        {
          "internalType": "uint256",
          "name": "",
          "type": "uint256"
        }
      ],
      "name": "marketListings",
      "outputs": [
        {
          "internalType": "uint256",
          "name": "listingId",
          "type": "uint256"
        },
        {
          "internalType": "address",
          "name": "nftContractAdd",
          "type": "address"
        },
        {
          "internalType": "uint256",
          "name": "tokenId",
          "type": "uint256"
        },
        {
          "internalType": "address",
          "name": "ownerAdd",
          "type": "address"
        },
        {
          "internalType": "uint256",
          "name": "price",
          "type": "uint256"
        },
        {
          "internalType": "bool",
          "name": "isSold",
          "type": "bool"
        },
        {
          "internalType": "bool",
          "name": "isCancelled",
          "type": "bool"
        }
      ],
      "stateMutability": "view",
      "type": "function",
      "constant": true
    },
    {
      "inputs": [
        {
          "internalType": "uint256",
          "name": "",
          "type": "uint256"
        }
      ],
      "name": "offers",
      "outputs": [
        {
          "internalType": "uint256",
          "name": "id",
          "type": "uint256"
        },
        {
          "internalType": "address",
          "name": "userAddress",
          "type": "address"
        },
        {
          "internalType": "uint256",
          "name": "price",
          "type": "uint256"
        },
        {
          "internalType": "address",
          "name": "nftContractAdd",
          "type": "address"
        },
        {
          "internalType": "uint256",
          "name": "tokenId",
          "type": "uint256"
        },
        {
          "internalType": "bool",
          "name": "fulfilled",
          "type": "bool"
        },
        {
          "internalType": "bool",
          "name": "cancelled",
          "type": "bool"
        }
      ],
      "stateMutability": "view",
      "type": "function",
      "constant": true
    },
    {
      "stateMutability": "payable",
      "type": "receive",
      "payable": true
    },
    {
      "inputs": [
        {
          "internalType": "address",
          "name": "_nftContract",
          "type": "address"
        },
        {
          "internalType": "uint256",
          "name": "_tokenId",
          "type": "uint256"
        },
        {
          "internalType": "uint256",
          "name": "_price",
          "type": "uint256"
        }
      ],
      "name": "putOnSale",
      "outputs": [],
      "stateMutability": "payable",
      "type": "function",
      "payable": true
    },
    {
      "inputs": [
        {
          "internalType": "uint256",
          "name": "listingId",
          "type": "uint256"
        }
      ],
      "name": "cancelSale",
      "outputs": [],
      "stateMutability": "nonpayable",
      "type": "function"
    },
    {
      "inputs": [
        {
          "internalType": "uint256",
          "name": "listingId",
          "type": "uint256"
        }
      ],
      "name": "buyNFT",
      "outputs": [],
      "stateMutability": "payable",
      "type": "function",
      "payable": true
    },
    {
      "inputs": [
        {
          "internalType": "address",
          "name": "_nftContractAdd",
          "type": "address"
        },
        {
          "internalType": "uint256",
          "name": "_tokenId",
          "type": "uint256"
        },
        {
          "internalType": "uint256",
          "name": "_price",
          "type": "uint256"
        }
      ],
      "name": "placeBid",
      "outputs": [],
      "stateMutability": "nonpayable",
      "type": "function"
    },
    {
      "inputs": [
        {
          "internalType": "uint256",
          "name": "_offerId",
          "type": "uint256"
        }
      ],
      "name": "acceptBid",
      "outputs": [],
      "stateMutability": "nonpayable",
      "type": "function"
    },
    {
      "inputs": [
        {
          "internalType": "uint256",
          "name": "_offerId",
          "type": "uint256"
        }
      ],
      "name": "cancelBid",
      "outputs": [],
      "stateMutability": "nonpayable",
      "type": "function"
    },
    {
      "inputs": [
        {
          "internalType": "address",
          "name": "_nftContractAddress",
          "type": "address"
        },
        {
          "internalType": "uint256",
          "name": "_tokenId",
          "type": "uint256"
        }
      ],
      "name": "_getListedItem",
      "outputs": [
        {
          "components": [
            {
              "internalType": "uint256",
              "name": "listingId",
              "type": "uint256"
            },
            {
              "internalType": "address",
              "name": "nftContractAdd",
              "type": "address"
            },
            {
              "internalType": "uint256",
              "name": "tokenId",
              "type": "uint256"
            },
            {
              "internalType": "address",
              "name": "ownerAdd",
              "type": "address"
            },
            {
              "internalType": "uint256",
              "name": "price",
              "type": "uint256"
            },
            {
              "internalType": "bool",
              "name": "isSold",
              "type": "bool"
            },
            {
              "internalType": "bool",
              "name": "isCancelled",
              "type": "bool"
            }
          ],
          "internalType": "struct Market.Listing",
          "name": "item",
          "type": "tuple"
        }
      ],
      "stateMutability": "view",
      "type": "function",
      "constant": true
    },
    {
      "inputs": [
        {
          "internalType": "address",
          "name": "userAddress",
          "type": "address"
        }
      ],
      "name": "getListedItemsOf",
      "outputs": [],
      "stateMutability": "nonpayable",
      "type": "function"
    }
  ],
  "bytecode": "0x6080604052662386f26fc1000060065560016000819055506200002e60016200004b60201b62001f5c1760201c565b6200004560026200004b60201b62001f5c1760201c565b62000061565b6001816000016000828254019250508190555050565b612d8580620000716000396000f3fe6080604052600436106100955760003560e01c80638a72ea6a116100595780638a72ea6a1461016b5780639703ef35146101ae578063b4154878146101d7578063bd94b00514610200578063e339e5c5146102295761009c565b806304717aca1461009e5780632b1fd58a146100c757806330788952146100f05780633ac0374a1461013357806351ed82881461014f5761009c565b3661009c57005b005b3480156100aa57600080fd5b506100c560048036038101906100c09190612086565b610266565b005b3480156100d357600080fd5b506100ee60048036038101906100e991906120d9565b610670565b005b3480156100fc57600080fd5b50610117600480360381019061011291906120d9565b610e3a565b60405161012a979695949392919061213f565b60405180910390f35b61014d60048036038101906101489190612086565b610ed6565b005b610169600480360381019061016491906120d9565b6112bf565b005b34801561017757600080fd5b50610192600480360381019061018d91906120d9565b611669565b6040516101a5979695949392919061213f565b60405180910390f35b3480156101ba57600080fd5b506101d560048036038101906101d091906120d9565b611705565b005b3480156101e357600080fd5b506101fe60048036038101906101f991906121ae565b61195d565b005b34801561020c57600080fd5b50610227600480360381019061022291906120d9565b611960565b005b34801561023557600080fd5b50610250600480360381019061024b91906121db565b611c71565b60405161025d91906122d6565b60405180910390f35b600083905060008173ffffffffffffffffffffffffffffffffffffffff16636352211e856040518263ffffffff1660e01b81526004016102a691906122f1565b602060405180830381865afa1580156102c3573d6000803e3d6000fd5b505050506040513d601f19601f820116820180604052508101906102e79190612321565b90503073ffffffffffffffffffffffffffffffffffffffff168173ffffffffffffffffffffffffffffffffffffffff1614156103345760006103298686611c71565b905080606001519150505b8073ffffffffffffffffffffffffffffffffffffffff163373ffffffffffffffffffffffffffffffffffffffff1614156103a3576040517f08c379a000000000000000000000000000000000000000000000000000000000815260040161039a906123ab565b60405180910390fd5b600073c778417e063141139fce010982780140aa0cd5ab905060008173ffffffffffffffffffffffffffffffffffffffff1663dd62ed3e33306040518363ffffffff1660e01b81526004016103f99291906123cb565b602060405180830381865afa158015610416573d6000803e3d6000fd5b505050506040513d601f19601f8201168201806040525081019061043a9190612409565b90508481101561047f576040517f08c379a000000000000000000000000000000000000000000000000000000000815260040161047690612482565b60405180910390fd5b600061048b6002611f72565b90506104976002611f5c565b6040518060e001604052808281526020013373ffffffffffffffffffffffffffffffffffffffff1681526020018781526020018973ffffffffffffffffffffffffffffffffffffffff16815260200188815260200160001515815260200160001515815250600560008381526020019081526020016000206000820151816000015560208201518160010160006101000a81548173ffffffffffffffffffffffffffffffffffffffff021916908373ffffffffffffffffffffffffffffffffffffffff1602179055506040820151816002015560608201518160030160006101000a81548173ffffffffffffffffffffffffffffffffffffffff021916908373ffffffffffffffffffffffffffffffffffffffff1602179055506080820151816004015560a08201518160050160006101000a81548160ff02191690831515021790555060c08201518160050160016101000a81548160ff021916908315150217905550905050868873ffffffffffffffffffffffffffffffffffffffff163373ffffffffffffffffffffffffffffffffffffffff167f2808decb743a25d04efe1bd3dc192acde3be644e2f6ad1dce5d3c46643e1c602848a60405161065e9291906124a2565b60405180910390a45050505050505050565b600260005414156106b6576040517f08c379a00000000000000000000000000000000000000000000000000000000081526004016106ad90612517565b60405180910390fd5b600260008190555060006005600083815260200190815260200160002090508060050160009054906101000a900460ff1615610727576040517f08c379a000000000000000000000000000000000000000000000000000000000815260040161071e90612583565b60405180910390fd5b8060050160019054906101000a900460ff1615610779576040517f08c379a0000000000000000000000000000000000000000000000000000000008152600401610770906125ef565b60405180910390fd5b60008160030160009054906101000a900473ffffffffffffffffffffffffffffffffffffffff16905060008173ffffffffffffffffffffffffffffffffffffffff16636352211e84600401546040518263ffffffff1660e01b81526004016107e191906122f1565b602060405180830381865afa1580156107fe573d6000803e3d6000fd5b505050506040513d601f19601f820116820180604052508101906108229190612321565b90503073ffffffffffffffffffffffffffffffffffffffff168173ffffffffffffffffffffffffffffffffffffffff161415610bbc57600061088c8460030160009054906101000a900473ffffffffffffffffffffffffffffffffffffffff168560040154611c71565b90506000600460008360000151815260200190815260200160002090508060030160009054906101000a900473ffffffffffffffffffffffffffffffffffffffff1692508273ffffffffffffffffffffffffffffffffffffffff163373ffffffffffffffffffffffffffffffffffffffff161461093e576040517f08c379a00000000000000000000000000000000000000000000000000000000081526004016109359061265b565b60405180910390fd5b600115158160050160009054906101000a900460ff1615151415610997576040517f08c379a000000000000000000000000000000000000000000000000000000000815260040161098e906126c7565b60405180910390fd5b600073c778417e063141139fce010982780140aa0cd5ab90508073ffffffffffffffffffffffffffffffffffffffff166323b872dd8760010160009054906101000a900473ffffffffffffffffffffffffffffffffffffffff163389600201546040518463ffffffff1660e01b8152600401610a1593929190612746565b6020604051808303816000875af1158015610a34573d6000803e3d6000fd5b505050506040513d601f19601f82011682018060405250810190610a5891906127a9565b508473ffffffffffffffffffffffffffffffffffffffff166323b872dd308860010160009054906101000a900473ffffffffffffffffffffffffffffffffffffffff1689600401546040518463ffffffff1660e01b8152600401610abe939291906127d6565b600060405180830381600087803b158015610ad857600080fd5b505af1158015610aec573d6000803e3d6000fd5b5050505060018260050160006101000a81548160ff0219169083151502179055506000610b196003611f72565b9050610b256003611f5c565b8660010160009054906101000a900473ffffffffffffffffffffffffffffffffffffffff1673ffffffffffffffffffffffffffffffffffffffff163373ffffffffffffffffffffffffffffffffffffffff16827f04ddd54c6b746e69ba87f862311f7670bd1d7276846778ac81cd38747b27a7468a60020154604051610bab91906122f1565b60405180910390a450505050610e2c565b8073ffffffffffffffffffffffffffffffffffffffff163373ffffffffffffffffffffffffffffffffffffffff1614610c2a576040517f08c379a0000000000000000000000000000000000000000000000000000000008152600401610c219061265b565b60405180910390fd5b8173ffffffffffffffffffffffffffffffffffffffff166323b872dd338560010160009054906101000a900473ffffffffffffffffffffffffffffffffffffffff1686600401546040518463ffffffff1660e01b8152600401610c8f939291906127d6565b600060405180830381600087803b158015610ca957600080fd5b505af1158015610cbd573d6000803e3d6000fd5b50505050600073c778417e063141139fce010982780140aa0cd5ab90508073ffffffffffffffffffffffffffffffffffffffff166323b872dd8560010160009054906101000a900473ffffffffffffffffffffffffffffffffffffffff163387600201546040518463ffffffff1660e01b8152600401610d3f93929190612746565b6020604051808303816000875af1158015610d5e573d6000803e3d6000fd5b505050506040513d601f19601f82011682018060405250810190610d8291906127a9565b506000610d8f6003611f72565b9050610d9b6003611f5c565b8460010160009054906101000a900473ffffffffffffffffffffffffffffffffffffffff1673ffffffffffffffffffffffffffffffffffffffff163373ffffffffffffffffffffffffffffffffffffffff16827f04ddd54c6b746e69ba87f862311f7670bd1d7276846778ac81cd38747b27a7468860020154604051610e2191906122f1565b60405180910390a450505b505050600160008190555050565b60046020528060005260406000206000915090508060000154908060010160009054906101000a900473ffffffffffffffffffffffffffffffffffffffff16908060020154908060030160009054906101000a900473ffffffffffffffffffffffffffffffffffffffff16908060040154908060050160009054906101000a900460ff16908060050160019054906101000a900460ff16905087565b60026000541415610f1c576040517f08c379a0000000000000000000000000000000000000000000000000000000008152600401610f1390612517565b60405180910390fd5b6002600081905550600083905060008173ffffffffffffffffffffffffffffffffffffffff16636352211e856040518263ffffffff1660e01b8152600401610f6491906122f1565b602060405180830381865afa158015610f81573d6000803e3d6000fd5b505050506040513d601f19601f82011682018060405250810190610fa59190612321565b90508073ffffffffffffffffffffffffffffffffffffffff163373ffffffffffffffffffffffffffffffffffffffff1614611015576040517f08c379a000000000000000000000000000000000000000000000000000000000815260040161100c90612859565b60405180910390fd5b6006543414611059576040517f08c379a0000000000000000000000000000000000000000000000000000000008152600401611050906128c5565b60405180910390fd5b8173ffffffffffffffffffffffffffffffffffffffff166323b872dd3330876040518463ffffffff1660e01b8152600401611096939291906127d6565b600060405180830381600087803b1580156110b057600080fd5b505af11580156110c4573d6000803e3d6000fd5b5050505060006110d46001611f72565b90506040518060e001604052808281526020018773ffffffffffffffffffffffffffffffffffffffff1681526020018681526020013373ffffffffffffffffffffffffffffffffffffffff16815260200185815260200160001515815260200160001515815250600460008381526020019081526020016000206000820151816000015560208201518160010160006101000a81548173ffffffffffffffffffffffffffffffffffffffff021916908373ffffffffffffffffffffffffffffffffffffffff1602179055506040820151816002015560608201518160030160006101000a81548173ffffffffffffffffffffffffffffffffffffffff021916908373ffffffffffffffffffffffffffffffffffffffff1602179055506080820151816004015560a08201518160050160006101000a81548160ff02191690831515021790555060c08201518160050160016101000a81548160ff0219169083151502179055509050506112476001611f5c565b8573ffffffffffffffffffffffffffffffffffffffff163373ffffffffffffffffffffffffffffffffffffffff16827f508c75a3cb42c068e54cf9e0b738921b4e2375725c5965ef4a110475606fc05a88886040516112a79291906124a2565b60405180910390a45050506001600081905550505050565b60026000541415611305576040517f08c379a00000000000000000000000000000000000000000000000000000000081526004016112fc90612517565b60405180910390fd5b60026000819055506000600460008381526020019081526020016000209050600073ffffffffffffffffffffffffffffffffffffffff168160010160009054906101000a900473ffffffffffffffffffffffffffffffffffffffff1673ffffffffffffffffffffffffffffffffffffffff1614156113b8576040517f08c379a00000000000000000000000000000000000000000000000000000000081526004016113af90612931565b60405180910390fd5b8060050160009054906101000a900460ff161561140a576040517f08c379a00000000000000000000000000000000000000000000000000000000081526004016114019061299d565b60405180910390fd5b8060050160019054906101000a900460ff161561145c576040517f08c379a000000000000000000000000000000000000000000000000000000000815260040161145390612a09565b60405180910390fd5b80600401543410156114a3576040517f08c379a000000000000000000000000000000000000000000000000000000000815260040161149a90612a9b565b60405180910390fd5b60018160050160006101000a81548160ff0219169083151502179055508060030160009054906101000a900473ffffffffffffffffffffffffffffffffffffffff1673ffffffffffffffffffffffffffffffffffffffff166108fc82600401549081150290604051600060405180830381858888f1935050505015801561152e573d6000803e3d6000fd5b508060010160009054906101000a900473ffffffffffffffffffffffffffffffffffffffff1673ffffffffffffffffffffffffffffffffffffffff166323b872dd303384600201546040518463ffffffff1660e01b8152600401611594939291906127d6565b600060405180830381600087803b1580156115ae57600080fd5b505af11580156115c2573d6000803e3d6000fd5b505050503373ffffffffffffffffffffffffffffffffffffffff168160030160009054906101000a900473ffffffffffffffffffffffffffffffffffffffff1673ffffffffffffffffffffffffffffffffffffffff166116226003611f72565b7f04ddd54c6b746e69ba87f862311f7670bd1d7276846778ac81cd38747b27a746846004015460405161165591906122f1565b60405180910390a450600160008190555050565b60056020528060005260406000206000915090508060000154908060010160009054906101000a900473ffffffffffffffffffffffffffffffffffffffff16908060020154908060030160009054906101000a900473ffffffffffffffffffffffffffffffffffffffff16908060040154908060050160009054906101000a900460ff16908060050160019054906101000a900460ff16905087565b6002600054141561174b576040517f08c379a000000000000000000000000000000000000000000000000000000000815260040161174290612517565b60405180910390fd5b600260008190555060006005600083815260200190815260200160002090508060010160009054906101000a900473ffffffffffffffffffffffffffffffffffffffff1673ffffffffffffffffffffffffffffffffffffffff163373ffffffffffffffffffffffffffffffffffffffff16146117fc576040517f08c379a00000000000000000000000000000000000000000000000000000000081526004016117f390612b07565b60405180910390fd5b8060050160009054906101000a900460ff161561184e576040517f08c379a000000000000000000000000000000000000000000000000000000000815260040161184590612583565b60405180910390fd5b8060050160019054906101000a900460ff16156118a0576040517f08c379a0000000000000000000000000000000000000000000000000000000008152600401611897906125ef565b60405180910390fd5b60018160050160016101000a81548160ff02191690831515021790555080600401548160030160009054906101000a900473ffffffffffffffffffffffffffffffffffffffff1673ffffffffffffffffffffffffffffffffffffffff163373ffffffffffffffffffffffffffffffffffffffff167f2808decb743a25d04efe1bd3dc192acde3be644e2f6ad1dce5d3c46643e1c6028585600201546040516119499291906124a2565b60405180910390a450600160008190555050565b50565b600260005414156119a6576040517f08c379a000000000000000000000000000000000000000000000000000000000815260040161199d90612517565b60405180910390fd5b600260008190555060006004600083815260200190815260200160002090508060030160009054906101000a900473ffffffffffffffffffffffffffffffffffffffff1673ffffffffffffffffffffffffffffffffffffffff163373ffffffffffffffffffffffffffffffffffffffff1614611a57576040517f08c379a0000000000000000000000000000000000000000000000000000000008152600401611a4e90612b73565b60405180910390fd5b8060050160009054906101000a900460ff1615611aa9576040517f08c379a0000000000000000000000000000000000000000000000000000000008152600401611aa090612bdf565b60405180910390fd5b8060050160019054906101000a900460ff1615611afb576040517f08c379a0000000000000000000000000000000000000000000000000000000008152600401611af290612c4b565b60405180910390fd5b60018160050160016101000a81548160ff0219169083151502179055508060010160009054906101000a900473ffffffffffffffffffffffffffffffffffffffff1673ffffffffffffffffffffffffffffffffffffffff166323b872dd303384600201546040518463ffffffff1660e01b8152600401611b7d939291906127d6565b600060405180830381600087803b158015611b9757600080fd5b505af1158015611bab573d6000803e3d6000fd5b505050508060010160009054906101000a900473ffffffffffffffffffffffffffffffffffffffff1673ffffffffffffffffffffffffffffffffffffffff168160030160009054906101000a900473ffffffffffffffffffffffffffffffffffffffff1673ffffffffffffffffffffffffffffffffffffffff1682600001547f61b65dee2812bcf80c52c603ed6479cde390ec97008da9021789097ffe9b9de78460020154604051611c5d91906122f1565b60405180910390a450600160008190555050565b611c79611f80565b600073ffffffffffffffffffffffffffffffffffffffff168373ffffffffffffffffffffffffffffffffffffffff161415611ce9576040517f08c379a0000000000000000000000000000000000000000000000000000000008152600401611ce090612cb7565b60405180910390fd5b60005b611cf66001611f72565b8111611f1a578373ffffffffffffffffffffffffffffffffffffffff166004600083815260200190815260200160002060010160009054906101000a900473ffffffffffffffffffffffffffffffffffffffff1673ffffffffffffffffffffffffffffffffffffffff16148015611d825750826004600083815260200190815260200160002060020154145b8015611daf57506004600082815260200190815260200160002060050160009054906101000a900460ff16155b8015611ddc57506004600082815260200190815260200160002060050160019054906101000a900460ff16155b15611f0757600460008281526020019081526020016000206040518060e0016040529081600082015481526020016001820160009054906101000a900473ffffffffffffffffffffffffffffffffffffffff1673ffffffffffffffffffffffffffffffffffffffff1673ffffffffffffffffffffffffffffffffffffffff168152602001600282015481526020016003820160009054906101000a900473ffffffffffffffffffffffffffffffffffffffff1673ffffffffffffffffffffffffffffffffffffffff1673ffffffffffffffffffffffffffffffffffffffff168152602001600482015481526020016005820160009054906101000a900460ff161515151581526020016005820160019054906101000a900460ff161515151581525050915050611f56565b8080611f1290612d06565b915050611cec565b506040517f08c379a0000000000000000000000000000000000000000000000000000000008152600401611f4d90612931565b60405180910390fd5b92915050565b6001816000016000828254019250508190555050565b600081600001549050919050565b6040518060e0016040528060008152602001600073ffffffffffffffffffffffffffffffffffffffff16815260200160008152602001600073ffffffffffffffffffffffffffffffffffffffff168152602001600081526020016000151581526020016000151581525090565b600080fd5b600073ffffffffffffffffffffffffffffffffffffffff82169050919050565b600061201d82611ff2565b9050919050565b61202d81612012565b811461203857600080fd5b50565b60008135905061204a81612024565b92915050565b6000819050919050565b61206381612050565b811461206e57600080fd5b50565b6000813590506120808161205a565b92915050565b60008060006060848603121561209f5761209e611fed565b5b60006120ad8682870161203b565b93505060206120be86828701612071565b92505060406120cf86828701612071565b9150509250925092565b6000602082840312156120ef576120ee611fed565b5b60006120fd84828501612071565b91505092915050565b61210f81612050565b82525050565b61211e81612012565b82525050565b60008115159050919050565b61213981612124565b82525050565b600060e082019050612154600083018a612106565b6121616020830189612115565b61216e6040830188612106565b61217b6060830187612115565b6121886080830186612106565b61219560a0830185612130565b6121a260c0830184612130565b98975050505050505050565b6000602082840312156121c4576121c3611fed565b5b60006121d28482850161203b565b91505092915050565b600080604083850312156121f2576121f1611fed565b5b60006122008582860161203b565b925050602061221185828601612071565b9150509250929050565b61222481612050565b82525050565b61223381612012565b82525050565b61224281612124565b82525050565b60e08201600082015161225e600085018261221b565b506020820151612271602085018261222a565b506040820151612284604085018261221b565b506060820151612297606085018261222a565b5060808201516122aa608085018261221b565b5060a08201516122bd60a0850182612239565b5060c08201516122d060c0850182612239565b50505050565b600060e0820190506122eb6000830184612248565b92915050565b60006020820190506123066000830184612106565b92915050565b60008151905061231b81612024565b92915050565b60006020828403121561233757612336611fed565b5b60006123458482850161230c565b91505092915050565b600082825260208201905092915050565b7f596f7520617265206f776e6572206f66207468697320746f6b656e0000000000600082015250565b6000612395601b8361234e565b91506123a08261235f565b602082019050919050565b600060208201905081810360008301526123c481612388565b9050919050565b60006040820190506123e06000830185612115565b6123ed6020830184612115565b9392505050565b6000815190506124038161205a565b92915050565b60006020828403121561241f5761241e611fed565b5b600061242d848285016123f4565b91505092915050565b7f5745544820616c6c6f77616e6365206973206e6f7420656e6f75676800000000600082015250565b600061246c601c8361234e565b915061247782612436565b602082019050919050565b6000602082019050818103600083015261249b8161245f565b9050919050565b60006040820190506124b76000830185612106565b6124c46020830184612106565b9392505050565b7f5265656e7472616e637947756172643a207265656e7472616e742063616c6c00600082015250565b6000612501601f8361234e565b915061250c826124cb565b602082019050919050565b60006020820190508181036000830152612530816124f4565b9050919050565b7f4f6666657220616c72656164792066756c66696c6c65642e0000000000000000600082015250565b600061256d60188361234e565b915061257882612537565b602082019050919050565b6000602082019050818103600083015261259c81612560565b9050919050565b7f4f666665722063616e63656c6c65642e00000000000000000000000000000000600082015250565b60006125d960108361234e565b91506125e4826125a3565b602082019050919050565b60006020820190508181036000830152612608816125cc565b9050919050565b7f4f6e6c79206f776e65722063616e20646f207468697300000000000000000000600082015250565b600061264560168361234e565b91506126508261260f565b602082019050919050565b6000602082019050818103600083015261267481612638565b9050919050565b7f4974656d20616c726561647920736f6c64000000000000000000000000000000600082015250565b60006126b160118361234e565b91506126bc8261267b565b602082019050919050565b600060208201905081810360008301526126e0816126a4565b9050919050565b6000819050919050565b600061270c61270761270284611ff2565b6126e7565b611ff2565b9050919050565b600061271e826126f1565b9050919050565b600061273082612713565b9050919050565b61274081612725565b82525050565b600060608201905061275b6000830186612115565b6127686020830185612737565b6127756040830184612106565b949350505050565b61278681612124565b811461279157600080fd5b50565b6000815190506127a38161277d565b92915050565b6000602082840312156127bf576127be611fed565b5b60006127cd84828501612794565b91505092915050565b60006060820190506127eb6000830186612115565b6127f86020830185612115565b6128056040830184612106565b949350505050565b7f4f6e6c7920746f6b656e206f776e65722063616e20646f20746869732e000000600082015250565b6000612843601d8361234e565b915061284e8261280d565b602082019050919050565b6000602082019050818103600083015261287281612836565b9050919050565b7f4c697374696e6720666565206d7573742062652073656e740000000000000000600082015250565b60006128af60188361234e565b91506128ba82612879565b602082019050919050565b600060208201905081810360008301526128de816128a2565b9050919050565b7f4c697374696e67206e6f7420666f756e64000000000000000000000000000000600082015250565b600061291b60118361234e565b9150612926826128e5565b602082019050919050565b6000602082019050818103600083015261294a8161290e565b9050919050565b7f4974656d20697320616c726561647920736f6c64000000000000000000000000600082015250565b600061298760148361234e565b915061299282612951565b602082019050919050565b600060208201905081810360008301526129b68161297a565b9050919050565b7f54686973206c697374696e672069732063616e63656c6c656400000000000000600082015250565b60006129f360198361234e565b91506129fe826129bd565b602082019050919050565b60006020820190508181036000830152612a22816129e6565b9050919050565b7f596f75206861766520746f2073656e642074686973206c697374696e6727732060008201527f7072696365000000000000000000000000000000000000000000000000000000602082015250565b6000612a8560258361234e565b9150612a9082612a29565b604082019050919050565b60006020820190508181036000830152612ab481612a78565b9050919050565b7f4f6e6c79206f776e65722063616e20646f20746869732e000000000000000000600082015250565b6000612af160178361234e565b9150612afc82612abb565b602082019050919050565b60006020820190508181036000830152612b2081612ae4565b9050919050565b7f4f6e6c79206f776e65722063616e20646f207468697320616374696f6e000000600082015250565b6000612b5d601d8361234e565b9150612b6882612b27565b602082019050919050565b60006020820190508181036000830152612b8c81612b50565b9050919050565b7f4974656d20686173206265656e20616c726561647920736f6c642e0000000000600082015250565b6000612bc9601b8361234e565b9150612bd482612b93565b602082019050919050565b60006020820190508181036000830152612bf881612bbc565b9050919050565b7f4c697374696e6720616c72656164792063616e63656c6c65642e000000000000600082015250565b6000612c35601a8361234e565b9150612c4082612bff565b602082019050919050565b60006020820190508181036000830152612c6481612c28565b9050919050565b7f3020616464726573730000000000000000000000000000000000000000000000600082015250565b6000612ca160098361234e565b9150612cac82612c6b565b602082019050919050565b60006020820190508181036000830152612cd081612c94565b9050919050565b7f4e487b7100000000000000000000000000000000000000000000000000000000600052601160045260246000fd5b6000612d1182612050565b91507fffffffffffffffffffffffffffffffffffffffffffffffffffffffffffffffff821415612d4457612d43612cd7565b5b60018201905091905056fea2646970667358221220b2085afd149f19610529bad197007d49fc7f9192bf7f77012beaac216baebd3e64736f6c634300080b0033",
  "immutableReferences": {},
  "source": "// SPDX-License-Identifier: MIT\r\npragma solidity ^0.8.4;\r\n\r\nimport \"@openzeppelin/contracts/token/ERC20/IERC20.sol\";\r\nimport \"@openzeppelin/contracts/token/ERC20/ERC20.sol\";\r\nimport \"@openzeppelin/contracts/token/ERC721/ERC721.sol\";\r\nimport \"@openzeppelin/contracts/token/ERC721/IERC721.sol\";\r\nimport \"@openzeppelin/contracts/utils/Counters.sol\";\r\nimport \"@openzeppelin/contracts/utils/Strings.sol\";\r\nimport \"@openzeppelin/contracts/security/ReentrancyGuard.sol\";\r\n\r\ncontract Market is ReentrancyGuard {\r\n    using Counters for Counters.Counter;\r\n    Counters.Counter private _listingCount;\r\n    Counters.Counter private _offerCount;\r\n    Counters.Counter private _saleCount;\r\n\r\n    mapping(uint256 => Listing) public marketListings;\r\n    mapping(uint256 => Offer) public offers;\r\n\r\n    uint256 LISTING_PRICE = 0.01 ether;\r\n\r\n    struct Offer {\r\n        uint256 id;\r\n        address userAddress;\r\n        uint256 price;\r\n        address nftContractAdd;\r\n        uint256 tokenId;\r\n        bool fulfilled;\r\n        bool cancelled;\r\n    }\r\n\r\n    struct Listing {\r\n        uint256 listingId;\r\n        address nftContractAdd;\r\n        uint256 tokenId;\r\n        address ownerAdd;\r\n        uint256 price;\r\n        bool isSold;\r\n        bool isCancelled;\r\n    }\r\n\r\n    constructor() payable {\r\n        _listingCount.increment(); // start from 1\r\n        _offerCount.increment(); // start from 1\r\n    }\r\n\r\n    function putOnSale(\r\n        address _nftContract,\r\n        uint256 _tokenId,\r\n        uint256 _price\r\n    ) public payable nonReentrant {\r\n        ERC721 nft = ERC721(_nftContract);\r\n        address tokenOwner = nft.ownerOf(_tokenId);\r\n        require(msg.sender == tokenOwner, \"Only token owner can do this.\");\r\n        require(msg.value == LISTING_PRICE, \"Listing fee must be sent\");\r\n\r\n        nft.transferFrom(msg.sender, address(this), _tokenId);\r\n\r\n        uint256 itemId = _listingCount.current();\r\n        marketListings[itemId] = Listing(\r\n            itemId,\r\n            _nftContract,\r\n            _tokenId,\r\n            payable(msg.sender),\r\n            _price,\r\n            false,\r\n            false\r\n        );\r\n        _listingCount.increment();\r\n\r\n        emit ListingCreated(itemId, msg.sender, _nftContract, _tokenId, _price);\r\n    }\r\n\r\n    function cancelSale(uint256 listingId) public nonReentrant {\r\n        Listing storage listing = marketListings[listingId];\r\n\r\n        require(msg.sender == listing.ownerAdd, \"Only owner can do this action\");\r\n        require(!listing.isSold, \"Item has been already sold.\");\r\n        require(!listing.isCancelled, \"Listing already cancelled.\");\r\n\r\n        listing.isCancelled = true;\r\n\r\n        IERC721(address(listing.nftContractAdd)).transferFrom(address(this), msg.sender, listing.tokenId);\r\n\r\n        emit ListingCancelled(listing.listingId, listing.ownerAdd, listing.nftContractAdd, listing.tokenId);\r\n    }\r\n\r\n    function buyNFT(uint listingId) public payable nonReentrant {\r\n        Listing storage listing = marketListings[listingId];\r\n        require(listing.nftContractAdd != address(0x0), \"Listing not found\");\r\n\r\n        if(listing.isSold) {\r\n            revert(\"Item is already sold\");\r\n        } else if (listing.isCancelled) {\r\n            revert(\"This listing is cancelled\");\r\n        }\r\n\r\n        require(msg.value >= listing.price, \"You have to send this listing's price\");\r\n        \r\n        listing.isSold = true;\r\n        payable(address(listing.ownerAdd)).transfer(listing.price);\r\n        ERC721(listing.nftContractAdd).transferFrom(address(this), msg.sender, listing.tokenId);\r\n\r\n        emit ItemSold(_saleCount.current(), listing.ownerAdd, msg.sender, listing.price);\r\n    }\r\n\r\n    function placeBid(address _nftContractAdd, uint256 _tokenId, uint256 _price) public {\r\n        IERC721 nft = IERC721(_nftContractAdd);\r\n        address tokenOwner = nft.ownerOf(_tokenId);\r\n        if(tokenOwner == address(this)) {\r\n            Listing memory listing = _getListedItem(_nftContractAdd, _tokenId);\r\n            tokenOwner = listing.ownerAdd;\r\n        }\r\n        require(msg.sender != tokenOwner, \"You are owner of this token\");\r\n\r\n        // @dev First, set WETH allowance for this market contract using WETH contract.\r\n        IERC20 weth = IERC20(address(0xc778417E063141139Fce010982780140Aa0cD5Ab));\r\n        uint256 allowance = weth.allowance(msg.sender, address(this));\r\n        require(allowance >= _price, \"WETH allowance is not enough\");\r\n\r\n        uint256 currentOffer = _offerCount.current();\r\n        _offerCount.increment();\r\n        offers[currentOffer] = Offer(\r\n            currentOffer,\r\n            msg.sender,\r\n            _price,\r\n            _nftContractAdd,\r\n            _tokenId,\r\n            false,\r\n            false\r\n        );\r\n\r\n        emit BidPlaced(currentOffer, msg.sender, _nftContractAdd, _tokenId, _price);\r\n    }\r\n\r\n    function acceptBid(uint _offerId) public nonReentrant {\r\n        Offer storage offer = offers[_offerId];\r\n        require(!offer.fulfilled, \"Offer already fulfilled.\");\r\n        require(!offer.cancelled, \"Offer cancelled.\");\r\n\r\n        IERC721 nftContract = IERC721(offer.nftContractAdd);\r\n        address nftOwner = nftContract.ownerOf(offer.tokenId);\r\n\r\n        /*\r\n        * There are two cases of accepting an offer: 1- NFT was not listed 2- NFT was already listed\r\n        * If the owner address equals the address of this contract, it means NFT already listed\r\n        * In this case, we need to find in our `listings` mapping and adjust the actual owner...\r\n        */\r\n        if(nftOwner == address(this)){ //  Already listed\r\n            Listing memory _listing = _getListedItem(offer.nftContractAdd, offer.tokenId);\r\n            Listing storage listing = marketListings[_listing.listingId];\r\n            nftOwner = listing.ownerAdd;\r\n\r\n            require(msg.sender == nftOwner, \"Only owner can do this\");\r\n            require(listing.isSold != true, \"Item already sold\");\r\n            \r\n            IERC20 weth = IERC20(address(0xc778417E063141139Fce010982780140Aa0cD5Ab));\r\n            weth.transferFrom(address(offer.userAddress), payable(msg.sender), offer.price);\r\n            nftContract.transferFrom(address(this), offer.userAddress, offer.tokenId);\r\n\r\n            listing.isSold = true;\r\n            uint256 currentSale = _saleCount.current();\r\n            _saleCount.increment();\r\n\r\n            emit ItemSold(currentSale, msg.sender, offer.userAddress, offer.price);\r\n        } else {\r\n            require(msg.sender == nftOwner, \"Only owner can do this\");\r\n            \r\n            // If the MarketContract is not approved for this token, it will throw an error. So the rest of the code won't work\r\n            nftContract.transferFrom(msg.sender, offer.userAddress, offer.tokenId);\r\n\r\n            IERC20 weth = IERC20(address(0xc778417E063141139Fce010982780140Aa0cD5Ab));\r\n            weth.transferFrom(address(offer.userAddress), payable(msg.sender), offer.price);\r\n\r\n            uint256 currentSale = _saleCount.current();\r\n            _saleCount.increment();\r\n            \r\n            emit ItemSold(currentSale, msg.sender, offer.userAddress, offer.price);\r\n        }\r\n    }\r\n\r\n    function cancelBid(uint _offerId) public nonReentrant {\r\n        Offer storage offer = offers[_offerId];\r\n        require(msg.sender == offer.userAddress, \"Only owner can do this.\");\r\n        require(!offer.fulfilled, \"Offer already fulfilled.\");\r\n        require(!offer.cancelled, \"Offer cancelled.\");\r\n\r\n        offer.cancelled = true;\r\n        emit BidPlaced(_offerId, msg.sender, offer.nftContractAdd, offer.tokenId, offer.price);\r\n    }\r\n\r\n    function _getListedItem(address _nftContractAddress, uint256 _tokenId)\r\n        public\r\n        view\r\n        returns (Listing memory item)\r\n    {\r\n        require(_nftContractAddress != address(0x0), \"0 address\");\r\n\r\n        for (uint256 i = 0; i <= _listingCount.current(); i++) {\r\n            if (\r\n                marketListings[i].nftContractAdd == _nftContractAddress &&\r\n                marketListings[i].tokenId == _tokenId &&\r\n                !marketListings[i].isSold &&\r\n                !marketListings[i].isCancelled\r\n            ) {\r\n                return marketListings[i];\r\n            }\r\n        }\r\n\r\n        revert(\"Listing not found\");\r\n    }\r\n\r\n    /**\r\n     * Since we're not using a proxy or sth like that in this version of contract, we transfer listed items to Market contract.\r\n     * So, listed items won't be in the wallet of user.\r\n     * We need to get listed items of user in the application\r\n     *\r\n     * Maybe we can implement a proxy in the future... :O\r\n     */\r\n    function getListedItemsOf(address userAddress) public {}\r\n\r\n    receive() external payable {}\r\n\r\n    fallback() external payable {}\r\n\r\n    event ListingCreated(\r\n        uint256 indexed listingId,\r\n        address indexed owner,\r\n        address indexed nftContract,\r\n        uint256 tokenId,\r\n        uint256 price\r\n    );\r\n\r\n    event ListingCancelled(\r\n        uint256 indexed listingId,\r\n        address indexed owner,\r\n        address indexed nftContract,\r\n        uint256 tokenId\r\n    );\r\n\r\n    event BidPlaced(\r\n        uint256 bidId,\r\n        address indexed bidder,\r\n        address indexed nftContractAdd,\r\n        uint256 indexed tokenId,\r\n        uint256 price\r\n    );\r\n\r\n    event BidCancelled(\r\n        uint256 indexed bidId,\r\n        address indexed bidder,\r\n        address indexed nftContractAdd,\r\n        uint256 tokenId,\r\n        uint256 price\r\n    );\r\n\r\n    event ItemSold(\r\n        uint256 indexed saleCount,\r\n        address indexed seller,\r\n        address indexed buyer,\r\n        uint256 price\r\n    );\r\n}\r\n",
  "sourcePath": "D:\\Projeler\\NFT Marketplace contracts\\contracts\\Market.sol",
  "compiler": {
    "name": "solc",
    "version": "0.8.11+commit.d7f03943.Emscripten.clang"
  },
  "schemaVersion": "3.4.6",
  "updatedAt": "2022-04-18T14:48:35.463Z",
  "networkType": "ethereum",
  "devdoc": {
    "kind": "dev",
    "methods": {},
    "version": 1
  },
  "userdoc": {
    "kind": "user",
    "methods": {
      "getListedItemsOf(address)": {
        "notice": "Since we're not using a proxy or sth like that in this version of contract, we transfer listed items to Market contract. So, listed items won't be in the wallet of user. We need to get listed items of user in the application Maybe we can implement a proxy in the future... :O"
      }
    },
    "version": 1
  }
}