{
  "contractName": "Market",
  "abi": [
    {
      "inputs": [],
      "stateMutability": "payable",
      "type": "constructor",
      "payable": true
    },
    {
      "anonymous": false,
      "inputs": [
        {
          "indexed": true,
          "internalType": "uint256",
          "name": "bidId",
          "type": "uint256"
        },
        {
          "indexed": true,
          "internalType": "address",
          "name": "bidder",
          "type": "address"
        },
        {
          "indexed": true,
          "internalType": "address",
          "name": "nftContractAdd",
          "type": "address"
        },
        {
          "indexed": false,
          "internalType": "uint256",
          "name": "tokenId",
          "type": "uint256"
        },
        {
          "indexed": false,
          "internalType": "uint256",
          "name": "price",
          "type": "uint256"
        }
      ],
      "name": "BidPlaced",
      "type": "event"
    },
    {
      "anonymous": false,
      "inputs": [
        {
          "indexed": true,
          "internalType": "uint256",
          "name": "saleCount",
          "type": "uint256"
        },
        {
          "indexed": true,
          "internalType": "address",
          "name": "seller",
          "type": "address"
        },
        {
          "indexed": true,
          "internalType": "address",
          "name": "buyer",
          "type": "address"
        },
        {
          "indexed": false,
          "internalType": "uint256",
          "name": "price",
          "type": "uint256"
        }
      ],
      "name": "ItemSold",
      "type": "event"
    },
    {
      "anonymous": false,
      "inputs": [
        {
          "indexed": true,
          "internalType": "uint256",
          "name": "listingId",
          "type": "uint256"
        },
        {
          "indexed": true,
          "internalType": "address",
          "name": "owner",
          "type": "address"
        },
        {
          "indexed": true,
          "internalType": "address",
          "name": "nftContract",
          "type": "address"
        },
        {
          "indexed": false,
          "internalType": "uint256",
          "name": "tokenId",
          "type": "uint256"
        }
      ],
      "name": "ListingCancelled",
      "type": "event"
    },
    {
      "anonymous": false,
      "inputs": [
        {
          "indexed": true,
          "internalType": "uint256",
          "name": "listingId",
          "type": "uint256"
        },
        {
          "indexed": true,
          "internalType": "address",
          "name": "owner",
          "type": "address"
        },
        {
          "indexed": true,
          "internalType": "address",
          "name": "nftContract",
          "type": "address"
        },
        {
          "indexed": false,
          "internalType": "uint256",
          "name": "tokenId",
          "type": "uint256"
        },
        {
          "indexed": false,
          "internalType": "uint256",
          "name": "price",
          "type": "uint256"
        }
      ],
      "name": "ListingCreated",
      "type": "event"
    },
    {
      "inputs": [
        {
          "internalType": "uint256",
          "name": "",
          "type": "uint256"
        }
      ],
      "name": "marketListings",
      "outputs": [
        {
          "internalType": "uint256",
          "name": "listingId",
          "type": "uint256"
        },
        {
          "internalType": "address",
          "name": "nftContractAdd",
          "type": "address"
        },
        {
          "internalType": "uint256",
          "name": "tokenId",
          "type": "uint256"
        },
        {
          "internalType": "address",
          "name": "ownerAdd",
          "type": "address"
        },
        {
          "internalType": "uint256",
          "name": "price",
          "type": "uint256"
        },
        {
          "internalType": "bool",
          "name": "isSold",
          "type": "bool"
        },
        {
          "internalType": "bool",
          "name": "isCancelled",
          "type": "bool"
        }
      ],
      "stateMutability": "view",
      "type": "function",
      "constant": true
    },
    {
      "inputs": [
        {
          "internalType": "uint256",
          "name": "",
          "type": "uint256"
        }
      ],
      "name": "offers",
      "outputs": [
        {
          "internalType": "uint256",
          "name": "id",
          "type": "uint256"
        },
        {
          "internalType": "address",
          "name": "userAddress",
          "type": "address"
        },
        {
          "internalType": "uint256",
          "name": "price",
          "type": "uint256"
        },
        {
          "internalType": "address",
          "name": "nftContractAdd",
          "type": "address"
        },
        {
          "internalType": "uint256",
          "name": "tokenId",
          "type": "uint256"
        },
        {
          "internalType": "bool",
          "name": "fulfilled",
          "type": "bool"
        },
        {
          "internalType": "bool",
          "name": "cancelled",
          "type": "bool"
        }
      ],
      "stateMutability": "view",
      "type": "function",
      "constant": true
    },
    {
      "inputs": [
        {
          "internalType": "address",
          "name": "_nftContract",
          "type": "address"
        },
        {
          "internalType": "uint256",
          "name": "_tokenId",
          "type": "uint256"
        },
        {
          "internalType": "uint256",
          "name": "_price",
          "type": "uint256"
        }
      ],
      "name": "putOnSale",
      "outputs": [],
      "stateMutability": "payable",
      "type": "function",
      "payable": true
    },
    {
      "inputs": [
        {
          "internalType": "address",
          "name": "_nftContractAddress",
          "type": "address"
        },
        {
          "internalType": "uint256",
          "name": "_tokenId",
          "type": "uint256"
        }
      ],
      "name": "_getListedItem",
      "outputs": [
        {
          "components": [
            {
              "internalType": "uint256",
              "name": "listingId",
              "type": "uint256"
            },
            {
              "internalType": "address",
              "name": "nftContractAdd",
              "type": "address"
            },
            {
              "internalType": "uint256",
              "name": "tokenId",
              "type": "uint256"
            },
            {
              "internalType": "address",
              "name": "ownerAdd",
              "type": "address"
            },
            {
              "internalType": "uint256",
              "name": "price",
              "type": "uint256"
            },
            {
              "internalType": "bool",
              "name": "isSold",
              "type": "bool"
            },
            {
              "internalType": "bool",
              "name": "isCancelled",
              "type": "bool"
            }
          ],
          "internalType": "struct Market.Listing",
          "name": "item",
          "type": "tuple"
        }
      ],
      "stateMutability": "view",
      "type": "function",
      "constant": true
    },
    {
      "inputs": [
        {
          "internalType": "address",
          "name": "userAddress",
          "type": "address"
        }
      ],
      "name": "getListedItemsOf",
      "outputs": [],
      "stateMutability": "nonpayable",
      "type": "function"
    }
  ],
  "bytecode": "0x6080604052662386f26fc10000600655600160008190555061002b600161004460201b6109661760201c565b61003f600261004460201b6109661760201c565b61005a565b6001816000016000828254019250508190555050565b611093806100696000396000f3fe60806040526004361061004a5760003560e01c8063307889521461004f5780633ac0374a146100925780638a72ea6a146100ae578063b4154878146100f1578063e339e5c51461011a575b600080fd5b34801561005b57600080fd5b5061007660048036038101906100719190610a32565b610157565b6040516100899796959493929190610aca565b60405180910390f35b6100ac60048036038101906100a79190610b65565b6101f3565b005b3480156100ba57600080fd5b506100d560048036038101906100d09190610a32565b6105dc565b6040516100e89796959493929190610aca565b60405180910390f35b3480156100fd57600080fd5b5061011860048036038101906101139190610bb8565b610678565b005b34801561012657600080fd5b50610141600480360381019061013c9190610be5565b61067b565b60405161014e9190610ce0565b60405180910390f35b60046020528060005260406000206000915090508060000154908060010160009054906101000a900473ffffffffffffffffffffffffffffffffffffffff16908060020154908060030160009054906101000a900473ffffffffffffffffffffffffffffffffffffffff16908060040154908060050160009054906101000a900460ff16908060050160019054906101000a900460ff16905087565b60026000541415610239576040517f08c379a000000000000000000000000000000000000000000000000000000000815260040161023090610d58565b60405180910390fd5b6002600081905550600083905060008173ffffffffffffffffffffffffffffffffffffffff16636352211e856040518263ffffffff1660e01b81526004016102819190610d78565b602060405180830381865afa15801561029e573d6000803e3d6000fd5b505050506040513d601f19601f820116820180604052508101906102c29190610da8565b90508073ffffffffffffffffffffffffffffffffffffffff163373ffffffffffffffffffffffffffffffffffffffff1614610332576040517f08c379a000000000000000000000000000000000000000000000000000000000815260040161032990610e21565b60405180910390fd5b6006543414610376576040517f08c379a000000000000000000000000000000000000000000000000000000000815260040161036d90610e8d565b60405180910390fd5b8173ffffffffffffffffffffffffffffffffffffffff166323b872dd3330876040518463ffffffff1660e01b81526004016103b393929190610ead565b600060405180830381600087803b1580156103cd57600080fd5b505af11580156103e1573d6000803e3d6000fd5b5050505060006103f1600161097c565b90506103fd6001610966565b6040518060e001604052808281526020018773ffffffffffffffffffffffffffffffffffffffff1681526020018681526020013373ffffffffffffffffffffffffffffffffffffffff16815260200185815260200160001515815260200160001515815250600460008381526020019081526020016000206000820151816000015560208201518160010160006101000a81548173ffffffffffffffffffffffffffffffffffffffff021916908373ffffffffffffffffffffffffffffffffffffffff1602179055506040820151816002015560608201518160030160006101000a81548173ffffffffffffffffffffffffffffffffffffffff021916908373ffffffffffffffffffffffffffffffffffffffff1602179055506080820151816004015560a08201518160050160006101000a81548160ff02191690831515021790555060c08201518160050160016101000a81548160ff0219169083151502179055509050508573ffffffffffffffffffffffffffffffffffffffff163373ffffffffffffffffffffffffffffffffffffffff16827f508c75a3cb42c068e54cf9e0b738921b4e2375725c5965ef4a110475606fc05a88886040516105c4929190610ee4565b60405180910390a45050506001600081905550505050565b60056020528060005260406000206000915090508060000154908060010160009054906101000a900473ffffffffffffffffffffffffffffffffffffffff16908060020154908060030160009054906101000a900473ffffffffffffffffffffffffffffffffffffffff16908060040154908060050160009054906101000a900460ff16908060050160019054906101000a900460ff16905087565b50565b61068361098a565b600073ffffffffffffffffffffffffffffffffffffffff168373ffffffffffffffffffffffffffffffffffffffff1614156106f3576040517f08c379a00000000000000000000000000000000000000000000000000000000081526004016106ea90610f59565b60405180910390fd5b60005b610700600161097c565b8111610924578373ffffffffffffffffffffffffffffffffffffffff166004600083815260200190815260200160002060010160009054906101000a900473ffffffffffffffffffffffffffffffffffffffff1673ffffffffffffffffffffffffffffffffffffffff1614801561078c5750826004600083815260200190815260200160002060020154145b80156107b957506004600082815260200190815260200160002060050160009054906101000a900460ff16155b80156107e657506004600082815260200190815260200160002060050160019054906101000a900460ff16155b1561091157600460008281526020019081526020016000206040518060e0016040529081600082015481526020016001820160009054906101000a900473ffffffffffffffffffffffffffffffffffffffff1673ffffffffffffffffffffffffffffffffffffffff1673ffffffffffffffffffffffffffffffffffffffff168152602001600282015481526020016003820160009054906101000a900473ffffffffffffffffffffffffffffffffffffffff1673ffffffffffffffffffffffffffffffffffffffff1673ffffffffffffffffffffffffffffffffffffffff168152602001600482015481526020016005820160009054906101000a900460ff161515151581526020016005820160019054906101000a900460ff161515151581525050915050610960565b808061091c90610fa8565b9150506106f6565b506040517f08c379a00000000000000000000000000000000000000000000000000000000081526004016109579061103d565b60405180910390fd5b92915050565b6001816000016000828254019250508190555050565b600081600001549050919050565b6040518060e0016040528060008152602001600073ffffffffffffffffffffffffffffffffffffffff16815260200160008152602001600073ffffffffffffffffffffffffffffffffffffffff168152602001600081526020016000151581526020016000151581525090565b600080fd5b6000819050919050565b610a0f816109fc565b8114610a1a57600080fd5b50565b600081359050610a2c81610a06565b92915050565b600060208284031215610a4857610a476109f7565b5b6000610a5684828501610a1d565b91505092915050565b610a68816109fc565b82525050565b600073ffffffffffffffffffffffffffffffffffffffff82169050919050565b6000610a9982610a6e565b9050919050565b610aa981610a8e565b82525050565b60008115159050919050565b610ac481610aaf565b82525050565b600060e082019050610adf600083018a610a5f565b610aec6020830189610aa0565b610af96040830188610a5f565b610b066060830187610aa0565b610b136080830186610a5f565b610b2060a0830185610abb565b610b2d60c0830184610abb565b98975050505050505050565b610b4281610a8e565b8114610b4d57600080fd5b50565b600081359050610b5f81610b39565b92915050565b600080600060608486031215610b7e57610b7d6109f7565b5b6000610b8c86828701610b50565b9350506020610b9d86828701610a1d565b9250506040610bae86828701610a1d565b9150509250925092565b600060208284031215610bce57610bcd6109f7565b5b6000610bdc84828501610b50565b91505092915050565b60008060408385031215610bfc57610bfb6109f7565b5b6000610c0a85828601610b50565b9250506020610c1b85828601610a1d565b9150509250929050565b610c2e816109fc565b82525050565b610c3d81610a8e565b82525050565b610c4c81610aaf565b82525050565b60e082016000820151610c686000850182610c25565b506020820151610c7b6020850182610c34565b506040820151610c8e6040850182610c25565b506060820151610ca16060850182610c34565b506080820151610cb46080850182610c25565b5060a0820151610cc760a0850182610c43565b5060c0820151610cda60c0850182610c43565b50505050565b600060e082019050610cf56000830184610c52565b92915050565b600082825260208201905092915050565b7f5265656e7472616e637947756172643a207265656e7472616e742063616c6c00600082015250565b6000610d42601f83610cfb565b9150610d4d82610d0c565b602082019050919050565b60006020820190508181036000830152610d7181610d35565b9050919050565b6000602082019050610d8d6000830184610a5f565b92915050565b600081519050610da281610b39565b92915050565b600060208284031215610dbe57610dbd6109f7565b5b6000610dcc84828501610d93565b91505092915050565b7f4f6e6c7920746f6b656e206f776e65722063616e20646f20746869732e000000600082015250565b6000610e0b601d83610cfb565b9150610e1682610dd5565b602082019050919050565b60006020820190508181036000830152610e3a81610dfe565b9050919050565b7f4c697374696e6720666565206d7573742062652073656e740000000000000000600082015250565b6000610e77601883610cfb565b9150610e8282610e41565b602082019050919050565b60006020820190508181036000830152610ea681610e6a565b9050919050565b6000606082019050610ec26000830186610aa0565b610ecf6020830185610aa0565b610edc6040830184610a5f565b949350505050565b6000604082019050610ef96000830185610a5f565b610f066020830184610a5f565b9392505050565b7f3020616464726573730000000000000000000000000000000000000000000000600082015250565b6000610f43600983610cfb565b9150610f4e82610f0d565b602082019050919050565b60006020820190508181036000830152610f7281610f36565b9050919050565b7f4e487b7100000000000000000000000000000000000000000000000000000000600052601160045260246000fd5b6000610fb3826109fc565b91507fffffffffffffffffffffffffffffffffffffffffffffffffffffffffffffffff821415610fe657610fe5610f79565b5b600182019050919050565b7f4c697374696e67206e6f7420666f756e64000000000000000000000000000000600082015250565b6000611027601183610cfb565b915061103282610ff1565b602082019050919050565b600060208201905081810360008301526110568161101a565b905091905056fea2646970667358221220ab3a8c69f2c2443892b26f654bc788ce3f352d7dba6b4a45c4038ae5dd94775b64736f6c634300080b0033",
  "immutableReferences": {},
  "source": "// SPDX-License-Identifier: MIT\r\npragma solidity ^0.8.4;\r\n\r\nimport \"@openzeppelin/contracts/token/ERC20/IERC20.sol\";\r\nimport \"@openzeppelin/contracts/token/ERC20/ERC20.sol\";\r\nimport \"@openzeppelin/contracts/token/ERC721/ERC721.sol\";\r\nimport \"@openzeppelin/contracts/token/ERC721/IERC721.sol\";\r\nimport \"@openzeppelin/contracts/utils/Counters.sol\";\r\nimport \"@openzeppelin/contracts/utils/Strings.sol\";\r\nimport \"@openzeppelin/contracts/security/ReentrancyGuard.sol\";\r\n\r\ncontract Market is ReentrancyGuard {\r\n    using Counters for Counters.Counter;\r\n    Counters.Counter private _listingCount;\r\n    Counters.Counter private _offerCount;\r\n    Counters.Counter private _saleCount;\r\n\r\n    mapping(uint256 => Listing) public marketListings;\r\n    mapping(uint256 => Offer) public offers;\r\n\r\n    uint256 LISTING_PRICE = 0.01 ether;\r\n\r\n    struct Offer {\r\n        uint256 id;\r\n        address userAddress;\r\n        uint256 price;\r\n        address nftContractAdd;\r\n        uint256 tokenId;\r\n        bool fulfilled;\r\n        bool cancelled;\r\n    }\r\n\r\n    struct Listing {\r\n        uint256 listingId;\r\n        address nftContractAdd;\r\n        uint256 tokenId;\r\n        address ownerAdd;\r\n        uint256 price;\r\n        bool isSold;\r\n        bool isCancelled;\r\n    }\r\n\r\n    constructor() payable {\r\n        _listingCount.increment(); // start from 1\r\n        _offerCount.increment(); // start from 1\r\n    }\r\n\r\n    function putOnSale(\r\n        address _nftContract,\r\n        uint256 _tokenId,\r\n        uint256 _price\r\n    ) public payable nonReentrant {\r\n        ERC721 nft = ERC721(_nftContract);\r\n        address tokenOwner = nft.ownerOf(_tokenId);\r\n        require(msg.sender == tokenOwner, \"Only token owner can do this.\");\r\n        require(msg.value == LISTING_PRICE, \"Listing fee must be sent\");\r\n\r\n        nft.transferFrom(msg.sender, address(this), _tokenId);\r\n\r\n        uint256 itemId = _listingCount.current();\r\n        _listingCount.increment();\r\n        marketListings[itemId] = Listing(\r\n            itemId,\r\n            _nftContract,\r\n            _tokenId,\r\n            payable(msg.sender),\r\n            _price,\r\n            false,\r\n            false\r\n        );\r\n\r\n        emit ListingCreated(itemId, msg.sender, _nftContract, _tokenId, _price);\r\n    }\r\n\r\n    // function cancelSale(uint256 listingId) public nonReentrant {\r\n    //     Listing storage listing = marketListings[listingId];\r\n\r\n    //     require(msg.sender == listing.ownerAdd, \"Only owner can do this action\");\r\n    //     require(!listing.isSold, \"Item has been already sold.\");\r\n\r\n    //     listing.isCancelled = true;\r\n\r\n    //     IERC721(address(listing.nftContractAdd)).transferFrom(address(this), msg.sender, listing.tokenId);\r\n\r\n    //     emit ListingCancelled(listing.listingId, listing.ownerAdd, listing.nftContractAdd, listing.tokenId);\r\n    // }\r\n\r\n    // function placeBid(address _nftContractAdd, uint256 _tokenId, uint256 _price) public {\r\n    //     IERC721 nft = IERC721(_nftContractAdd);\r\n    //     address tokenOwner = nft.ownerOf(_tokenId);\r\n    //     require(msg.sender != tokenOwner, \"You are owner of this token\");\r\n\r\n    //     // @dev First, set WETH allowance for this market contract using WETH contract.\r\n    //     IERC20 weth = IERC20(address(0xc778417E063141139Fce010982780140Aa0cD5Ab));\r\n    //     uint256 allowance = weth.allowance(msg.sender, address(this));\r\n    //     require(allowance >= _price, \"WETH allowance is not enough\");\r\n\r\n    //     uint256 currentOffer = _offerCount.current();\r\n    //     _offerCount.increment();\r\n    //     offers[currentOffer] = Offer(\r\n    //         currentOffer,\r\n    //         msg.sender,\r\n    //         _price,\r\n    //         _nftContractAdd,\r\n    //         _tokenId,\r\n    //         false,\r\n    //         false\r\n    //     );\r\n\r\n    //     emit BidPlaced(currentOffer, msg.sender, _nftContractAdd, _tokenId, _price);\r\n    // }\r\n\r\n    // function acceptBid(uint _offerId) public nonReentrant {\r\n    //     Offer storage offer = offers[_offerId];\r\n    //     require(!offer.fulfilled, \"Offer already fulfilled.\");\r\n    //     require(!offer.cancelled, \"Offer cancelled.\");\r\n\r\n    //     IERC721 nft = IERC721(offer.nftContractAdd);\r\n    //     address nftOwner = nft.ownerOf(offer.tokenId);\r\n\r\n    //     /*\r\n    //     * There are two case of accepting an offer: 1- NFT was not listed 2- NFT was already listed\r\n    //     * If the owner address equals the address of this contract, it means NFT already listed\r\n    //     * In this case, we need to find in our `listings` mapping and adjust the actual owner...\r\n    //     */\r\n    //     Listing storage listing;\r\n    //     if(nftOwner == address(this)){\r\n    //         listing = _getListedItem(offer.nftContractAdd, offer.tokenId);\r\n    //         nftOwner = listing.ownerAdd;\r\n    //     }\r\n    //     require(msg.sender == nftOwner, \"Only owner of the token can do this\");\r\n\r\n    //     /*\r\n    //     * TODO: There might be a vulnerability: what if NFT owner removes approval for our contract? Or vice versa?\r\n    //     * In this version, omitting this possibility...\r\n    //     */\r\n    //     IERC20 weth = IERC20(address(0xc778417E063141139Fce010982780140Aa0cD5Ab));\r\n    //     weth.transferFrom(address(offer.userAddress), payable(msg.sender), offer.price);\r\n\r\n    //     if(listing.listingId != 0){\r\n    //         nft.transferFrom(address(this), offer.userAddress, offer.tokenId);\r\n    //         listing.isSold = true;\r\n    //     } else {\r\n    //         nft.transferFrom(nftOwner, offer.userAddress, offer.tokenId);\r\n    //     }\r\n\r\n    //     offer.fulfilled = true;\r\n    //     uint256 currentSale = _saleCount.current();\r\n    //     _saleCount.increment();\r\n\r\n    //     emit ItemSold(currentSale, msg.sender, offer.userAddress, offer.price);\r\n    // }\r\n\r\n    function _getListedItem(address _nftContractAddress, uint256 _tokenId)\r\n        public\r\n        view\r\n        returns (Listing memory item)\r\n    {\r\n        require(_nftContractAddress != address(0), \"0 address\");\r\n\r\n        for (uint256 i = 0; i <= _listingCount.current(); i++) {\r\n            if (\r\n                marketListings[i].nftContractAdd == _nftContractAddress &&\r\n                marketListings[i].tokenId == _tokenId &&\r\n                !marketListings[i].isSold &&\r\n                !marketListings[i].isCancelled\r\n            ) {\r\n                return marketListings[i];\r\n            }\r\n        }\r\n\r\n        revert(\"Listing not found\");\r\n    }\r\n\r\n    /**\r\n     * Since we're not using a proxy or sth like that in this version of contract, we transfer listed items to Market contract.\r\n     * So, listed items won't be in the wallet of user.\r\n     * We need to get listed items of user in the application\r\n     *\r\n     * Maybe we can implement a proxy in the future... :O\r\n     */\r\n    function getListedItemsOf(address userAddress) public {}\r\n\r\n    event ListingCreated(\r\n        uint256 indexed listingId,\r\n        address indexed owner,\r\n        address indexed nftContract,\r\n        uint256 tokenId,\r\n        uint256 price\r\n    );\r\n\r\n    event ListingCancelled(\r\n        uint256 indexed listingId,\r\n        address indexed owner,\r\n        address indexed nftContract,\r\n        uint256 tokenId\r\n    );\r\n\r\n    event BidPlaced(\r\n        uint256 indexed bidId,\r\n        address indexed bidder,\r\n        address indexed nftContractAdd,\r\n        uint256 tokenId,\r\n        uint256 price\r\n    );\r\n\r\n    event ItemSold(\r\n        uint256 indexed saleCount,\r\n        address indexed seller,\r\n        address indexed buyer,\r\n        uint256 price\r\n    );\r\n}\r\n",
  "sourcePath": "D:\\Projeler\\NFT Marketplace contracts\\contracts\\Market.sol",
  "compiler": {
    "name": "solc",
    "version": "0.8.11+commit.d7f03943.Emscripten.clang"
  },
  "schemaVersion": "3.4.6",
  "updatedAt": "2022-04-06T15:05:01.657Z",
  "networkType": "ethereum",
  "devdoc": {
    "kind": "dev",
    "methods": {},
    "version": 1
  },
  "userdoc": {
    "kind": "user",
    "methods": {
      "getListedItemsOf(address)": {
        "notice": "Since we're not using a proxy or sth like that in this version of contract, we transfer listed items to Market contract. So, listed items won't be in the wallet of user. We need to get listed items of user in the application Maybe we can implement a proxy in the future... :O"
      }
    },
    "version": 1
  }
}