{
  "contractName": "Market",
  "abi": [
    {
      "inputs": [],
      "stateMutability": "payable",
      "type": "constructor",
      "payable": true
    },
    {
      "anonymous": false,
      "inputs": [
        {
          "indexed": true,
          "internalType": "uint256",
          "name": "bidId",
          "type": "uint256"
        },
        {
          "indexed": true,
          "internalType": "address",
          "name": "bidder",
          "type": "address"
        },
        {
          "indexed": true,
          "internalType": "address",
          "name": "nftContractAdd",
          "type": "address"
        },
        {
          "indexed": false,
          "internalType": "uint256",
          "name": "tokenId",
          "type": "uint256"
        },
        {
          "indexed": false,
          "internalType": "uint256",
          "name": "price",
          "type": "uint256"
        }
      ],
      "name": "BidPlaced",
      "type": "event"
    },
    {
      "anonymous": false,
      "inputs": [
        {
          "indexed": true,
          "internalType": "uint256",
          "name": "saleCount",
          "type": "uint256"
        },
        {
          "indexed": true,
          "internalType": "address",
          "name": "seller",
          "type": "address"
        },
        {
          "indexed": true,
          "internalType": "address",
          "name": "buyer",
          "type": "address"
        },
        {
          "indexed": false,
          "internalType": "uint256",
          "name": "price",
          "type": "uint256"
        }
      ],
      "name": "ItemSold",
      "type": "event"
    },
    {
      "anonymous": false,
      "inputs": [
        {
          "indexed": true,
          "internalType": "uint256",
          "name": "listingId",
          "type": "uint256"
        },
        {
          "indexed": true,
          "internalType": "address",
          "name": "owner",
          "type": "address"
        },
        {
          "indexed": true,
          "internalType": "address",
          "name": "nftContract",
          "type": "address"
        },
        {
          "indexed": false,
          "internalType": "uint256",
          "name": "tokenId",
          "type": "uint256"
        }
      ],
      "name": "ListingCancelled",
      "type": "event"
    },
    {
      "anonymous": false,
      "inputs": [
        {
          "indexed": true,
          "internalType": "uint256",
          "name": "listingId",
          "type": "uint256"
        },
        {
          "indexed": true,
          "internalType": "address",
          "name": "owner",
          "type": "address"
        },
        {
          "indexed": true,
          "internalType": "address",
          "name": "nftContract",
          "type": "address"
        },
        {
          "indexed": false,
          "internalType": "uint256",
          "name": "tokenId",
          "type": "uint256"
        },
        {
          "indexed": false,
          "internalType": "uint256",
          "name": "price",
          "type": "uint256"
        }
      ],
      "name": "ListingCreated",
      "type": "event"
    },
    {
      "stateMutability": "payable",
      "type": "fallback",
      "payable": true
    },
    {
      "inputs": [
        {
          "internalType": "uint256",
          "name": "",
          "type": "uint256"
        }
      ],
      "name": "marketListings",
      "outputs": [
        {
          "internalType": "uint256",
          "name": "listingId",
          "type": "uint256"
        },
        {
          "internalType": "address",
          "name": "nftContractAdd",
          "type": "address"
        },
        {
          "internalType": "uint256",
          "name": "tokenId",
          "type": "uint256"
        },
        {
          "internalType": "address",
          "name": "ownerAdd",
          "type": "address"
        },
        {
          "internalType": "uint256",
          "name": "price",
          "type": "uint256"
        },
        {
          "internalType": "bool",
          "name": "isSold",
          "type": "bool"
        },
        {
          "internalType": "bool",
          "name": "isCancelled",
          "type": "bool"
        }
      ],
      "stateMutability": "view",
      "type": "function",
      "constant": true
    },
    {
      "inputs": [
        {
          "internalType": "uint256",
          "name": "",
          "type": "uint256"
        }
      ],
      "name": "offers",
      "outputs": [
        {
          "internalType": "uint256",
          "name": "id",
          "type": "uint256"
        },
        {
          "internalType": "address",
          "name": "userAddress",
          "type": "address"
        },
        {
          "internalType": "uint256",
          "name": "price",
          "type": "uint256"
        },
        {
          "internalType": "address",
          "name": "nftContractAdd",
          "type": "address"
        },
        {
          "internalType": "uint256",
          "name": "tokenId",
          "type": "uint256"
        },
        {
          "internalType": "bool",
          "name": "fulfilled",
          "type": "bool"
        },
        {
          "internalType": "bool",
          "name": "cancelled",
          "type": "bool"
        }
      ],
      "stateMutability": "view",
      "type": "function",
      "constant": true
    },
    {
      "stateMutability": "payable",
      "type": "receive",
      "payable": true
    },
    {
      "inputs": [
        {
          "internalType": "address",
          "name": "_nftContract",
          "type": "address"
        },
        {
          "internalType": "uint256",
          "name": "_tokenId",
          "type": "uint256"
        },
        {
          "internalType": "uint256",
          "name": "_price",
          "type": "uint256"
        }
      ],
      "name": "putOnSale",
      "outputs": [],
      "stateMutability": "payable",
      "type": "function",
      "payable": true
    },
    {
      "inputs": [
        {
          "internalType": "uint256",
          "name": "listingId",
          "type": "uint256"
        }
      ],
      "name": "cancelSale",
      "outputs": [],
      "stateMutability": "nonpayable",
      "type": "function"
    },
    {
      "inputs": [
        {
          "internalType": "uint256",
          "name": "listingId",
          "type": "uint256"
        }
      ],
      "name": "buyNFT",
      "outputs": [],
      "stateMutability": "payable",
      "type": "function",
      "payable": true
    },
    {
      "inputs": [
        {
          "internalType": "address",
          "name": "_nftContractAdd",
          "type": "address"
        },
        {
          "internalType": "uint256",
          "name": "_tokenId",
          "type": "uint256"
        },
        {
          "internalType": "uint256",
          "name": "_price",
          "type": "uint256"
        }
      ],
      "name": "placeBid",
      "outputs": [],
      "stateMutability": "nonpayable",
      "type": "function"
    },
    {
      "inputs": [
        {
          "internalType": "address",
          "name": "_nftContractAddress",
          "type": "address"
        },
        {
          "internalType": "uint256",
          "name": "_tokenId",
          "type": "uint256"
        }
      ],
      "name": "_getListedItem",
      "outputs": [
        {
          "components": [
            {
              "internalType": "uint256",
              "name": "listingId",
              "type": "uint256"
            },
            {
              "internalType": "address",
              "name": "nftContractAdd",
              "type": "address"
            },
            {
              "internalType": "uint256",
              "name": "tokenId",
              "type": "uint256"
            },
            {
              "internalType": "address",
              "name": "ownerAdd",
              "type": "address"
            },
            {
              "internalType": "uint256",
              "name": "price",
              "type": "uint256"
            },
            {
              "internalType": "bool",
              "name": "isSold",
              "type": "bool"
            },
            {
              "internalType": "bool",
              "name": "isCancelled",
              "type": "bool"
            }
          ],
          "internalType": "struct Market.Listing",
          "name": "item",
          "type": "tuple"
        }
      ],
      "stateMutability": "view",
      "type": "function",
      "constant": true
    },
    {
      "inputs": [
        {
          "internalType": "address",
          "name": "userAddress",
          "type": "address"
        }
      ],
      "name": "getListedItemsOf",
      "outputs": [],
      "stateMutability": "nonpayable",
      "type": "function"
    }
  ],
  "bytecode": "0x6080604052662386f26fc10000600655600160008190555061002b600161004460201b6114871760201c565b61003f600261004460201b6114871760201c565b61005a565b6001816000016000828254019250508190555050565b611fa5806200006a6000396000f3fe60806040526004361061007f5760003560e01c80638a72ea6a1161004e5780638a72ea6a1461012c578063b41548781461016f578063bd94b00514610198578063e339e5c5146101c157610086565b806304717aca1461008857806330788952146100b15780633ac0374a146100f457806351ed82881461011057610086565b3661008657005b005b34801561009457600080fd5b506100af60048036038101906100aa91906115b1565b6101fe565b005b3480156100bd57600080fd5b506100d860048036038101906100d39190611604565b6105bd565b6040516100eb979695949392919061166a565b60405180910390f35b61010e600480360381019061010991906115b1565b610659565b005b61012a60048036038101906101259190611604565b610a42565b005b34801561013857600080fd5b50610153600480360381019061014e9190611604565b610dec565b604051610166979695949392919061166a565b60405180910390f35b34801561017b57600080fd5b50610196600480360381019061019191906116d9565b610e88565b005b3480156101a457600080fd5b506101bf60048036038101906101ba9190611604565b610e8b565b005b3480156101cd57600080fd5b506101e860048036038101906101e39190611706565b61119c565b6040516101f59190611801565b60405180910390f35b600083905060008173ffffffffffffffffffffffffffffffffffffffff16636352211e856040518263ffffffff1660e01b815260040161023e919061181c565b602060405180830381865afa15801561025b573d6000803e3d6000fd5b505050506040513d601f19601f8201168201806040525081019061027f919061184c565b90508073ffffffffffffffffffffffffffffffffffffffff163373ffffffffffffffffffffffffffffffffffffffff1614156102f0576040517f08c379a00000000000000000000000000000000000000000000000000000000081526004016102e7906118d6565b60405180910390fd5b600073c778417e063141139fce010982780140aa0cd5ab905060008173ffffffffffffffffffffffffffffffffffffffff1663dd62ed3e33306040518363ffffffff1660e01b81526004016103469291906118f6565b602060405180830381865afa158015610363573d6000803e3d6000fd5b505050506040513d601f19601f820116820180604052508101906103879190611934565b9050848110156103cc576040517f08c379a00000000000000000000000000000000000000000000000000000000081526004016103c3906119ad565b60405180910390fd5b60006103d8600261149d565b90506103e46002611487565b6040518060e001604052808281526020013373ffffffffffffffffffffffffffffffffffffffff1681526020018781526020018973ffffffffffffffffffffffffffffffffffffffff16815260200188815260200160001515815260200160001515815250600560008381526020019081526020016000206000820151816000015560208201518160010160006101000a81548173ffffffffffffffffffffffffffffffffffffffff021916908373ffffffffffffffffffffffffffffffffffffffff1602179055506040820151816002015560608201518160030160006101000a81548173ffffffffffffffffffffffffffffffffffffffff021916908373ffffffffffffffffffffffffffffffffffffffff1602179055506080820151816004015560a08201518160050160006101000a81548160ff02191690831515021790555060c08201518160050160016101000a81548160ff0219169083151502179055509050508773ffffffffffffffffffffffffffffffffffffffff163373ffffffffffffffffffffffffffffffffffffffff16827f2808decb743a25d04efe1bd3dc192acde3be644e2f6ad1dce5d3c46643e1c6028a8a6040516105ab9291906119cd565b60405180910390a45050505050505050565b60046020528060005260406000206000915090508060000154908060010160009054906101000a900473ffffffffffffffffffffffffffffffffffffffff16908060020154908060030160009054906101000a900473ffffffffffffffffffffffffffffffffffffffff16908060040154908060050160009054906101000a900460ff16908060050160019054906101000a900460ff16905087565b6002600054141561069f576040517f08c379a000000000000000000000000000000000000000000000000000000000815260040161069690611a42565b60405180910390fd5b6002600081905550600083905060008173ffffffffffffffffffffffffffffffffffffffff16636352211e856040518263ffffffff1660e01b81526004016106e7919061181c565b602060405180830381865afa158015610704573d6000803e3d6000fd5b505050506040513d601f19601f82011682018060405250810190610728919061184c565b90508073ffffffffffffffffffffffffffffffffffffffff163373ffffffffffffffffffffffffffffffffffffffff1614610798576040517f08c379a000000000000000000000000000000000000000000000000000000000815260040161078f90611aae565b60405180910390fd5b60065434146107dc576040517f08c379a00000000000000000000000000000000000000000000000000000000081526004016107d390611b1a565b60405180910390fd5b8173ffffffffffffffffffffffffffffffffffffffff166323b872dd3330876040518463ffffffff1660e01b815260040161081993929190611b3a565b600060405180830381600087803b15801561083357600080fd5b505af1158015610847573d6000803e3d6000fd5b505050506000610857600161149d565b90506040518060e001604052808281526020018773ffffffffffffffffffffffffffffffffffffffff1681526020018681526020013373ffffffffffffffffffffffffffffffffffffffff16815260200185815260200160001515815260200160001515815250600460008381526020019081526020016000206000820151816000015560208201518160010160006101000a81548173ffffffffffffffffffffffffffffffffffffffff021916908373ffffffffffffffffffffffffffffffffffffffff1602179055506040820151816002015560608201518160030160006101000a81548173ffffffffffffffffffffffffffffffffffffffff021916908373ffffffffffffffffffffffffffffffffffffffff1602179055506080820151816004015560a08201518160050160006101000a81548160ff02191690831515021790555060c08201518160050160016101000a81548160ff0219169083151502179055509050506109ca6001611487565b8573ffffffffffffffffffffffffffffffffffffffff163373ffffffffffffffffffffffffffffffffffffffff16827f508c75a3cb42c068e54cf9e0b738921b4e2375725c5965ef4a110475606fc05a8888604051610a2a9291906119cd565b60405180910390a45050506001600081905550505050565b60026000541415610a88576040517f08c379a0000000000000000000000000000000000000000000000000000000008152600401610a7f90611a42565b60405180910390fd5b60026000819055506000600460008381526020019081526020016000209050600073ffffffffffffffffffffffffffffffffffffffff168160010160009054906101000a900473ffffffffffffffffffffffffffffffffffffffff1673ffffffffffffffffffffffffffffffffffffffff161415610b3b576040517f08c379a0000000000000000000000000000000000000000000000000000000008152600401610b3290611bbd565b60405180910390fd5b8060050160009054906101000a900460ff1615610b8d576040517f08c379a0000000000000000000000000000000000000000000000000000000008152600401610b8490611c29565b60405180910390fd5b8060050160019054906101000a900460ff1615610bdf576040517f08c379a0000000000000000000000000000000000000000000000000000000008152600401610bd690611c95565b60405180910390fd5b8060040154341015610c26576040517f08c379a0000000000000000000000000000000000000000000000000000000008152600401610c1d90611d27565b60405180910390fd5b60018160050160006101000a81548160ff0219169083151502179055508060030160009054906101000a900473ffffffffffffffffffffffffffffffffffffffff1673ffffffffffffffffffffffffffffffffffffffff166108fc82600401549081150290604051600060405180830381858888f19350505050158015610cb1573d6000803e3d6000fd5b508060010160009054906101000a900473ffffffffffffffffffffffffffffffffffffffff1673ffffffffffffffffffffffffffffffffffffffff166323b872dd303384600201546040518463ffffffff1660e01b8152600401610d1793929190611b3a565b600060405180830381600087803b158015610d3157600080fd5b505af1158015610d45573d6000803e3d6000fd5b505050503373ffffffffffffffffffffffffffffffffffffffff168160030160009054906101000a900473ffffffffffffffffffffffffffffffffffffffff1673ffffffffffffffffffffffffffffffffffffffff16610da5600361149d565b7f04ddd54c6b746e69ba87f862311f7670bd1d7276846778ac81cd38747b27a7468460040154604051610dd8919061181c565b60405180910390a450600160008190555050565b60056020528060005260406000206000915090508060000154908060010160009054906101000a900473ffffffffffffffffffffffffffffffffffffffff16908060020154908060030160009054906101000a900473ffffffffffffffffffffffffffffffffffffffff16908060040154908060050160009054906101000a900460ff16908060050160019054906101000a900460ff16905087565b50565b60026000541415610ed1576040517f08c379a0000000000000000000000000000000000000000000000000000000008152600401610ec890611a42565b60405180910390fd5b600260008190555060006004600083815260200190815260200160002090508060030160009054906101000a900473ffffffffffffffffffffffffffffffffffffffff1673ffffffffffffffffffffffffffffffffffffffff163373ffffffffffffffffffffffffffffffffffffffff1614610f82576040517f08c379a0000000000000000000000000000000000000000000000000000000008152600401610f7990611d93565b60405180910390fd5b8060050160009054906101000a900460ff1615610fd4576040517f08c379a0000000000000000000000000000000000000000000000000000000008152600401610fcb90611dff565b60405180910390fd5b8060050160019054906101000a900460ff1615611026576040517f08c379a000000000000000000000000000000000000000000000000000000000815260040161101d90611e6b565b60405180910390fd5b60018160050160016101000a81548160ff0219169083151502179055508060010160009054906101000a900473ffffffffffffffffffffffffffffffffffffffff1673ffffffffffffffffffffffffffffffffffffffff166323b872dd303384600201546040518463ffffffff1660e01b81526004016110a893929190611b3a565b600060405180830381600087803b1580156110c257600080fd5b505af11580156110d6573d6000803e3d6000fd5b505050508060010160009054906101000a900473ffffffffffffffffffffffffffffffffffffffff1673ffffffffffffffffffffffffffffffffffffffff168160030160009054906101000a900473ffffffffffffffffffffffffffffffffffffffff1673ffffffffffffffffffffffffffffffffffffffff1682600001547f61b65dee2812bcf80c52c603ed6479cde390ec97008da9021789097ffe9b9de78460020154604051611188919061181c565b60405180910390a450600160008190555050565b6111a46114ab565b600073ffffffffffffffffffffffffffffffffffffffff168373ffffffffffffffffffffffffffffffffffffffff161415611214576040517f08c379a000000000000000000000000000000000000000000000000000000000815260040161120b90611ed7565b60405180910390fd5b60005b611221600161149d565b8111611445578373ffffffffffffffffffffffffffffffffffffffff166004600083815260200190815260200160002060010160009054906101000a900473ffffffffffffffffffffffffffffffffffffffff1673ffffffffffffffffffffffffffffffffffffffff161480156112ad5750826004600083815260200190815260200160002060020154145b80156112da57506004600082815260200190815260200160002060050160009054906101000a900460ff16155b801561130757506004600082815260200190815260200160002060050160019054906101000a900460ff16155b1561143257600460008281526020019081526020016000206040518060e0016040529081600082015481526020016001820160009054906101000a900473ffffffffffffffffffffffffffffffffffffffff1673ffffffffffffffffffffffffffffffffffffffff1673ffffffffffffffffffffffffffffffffffffffff168152602001600282015481526020016003820160009054906101000a900473ffffffffffffffffffffffffffffffffffffffff1673ffffffffffffffffffffffffffffffffffffffff1673ffffffffffffffffffffffffffffffffffffffff168152602001600482015481526020016005820160009054906101000a900460ff161515151581526020016005820160019054906101000a900460ff161515151581525050915050611481565b808061143d90611f26565b915050611217565b506040517f08c379a000000000000000000000000000000000000000000000000000000000815260040161147890611bbd565b60405180910390fd5b92915050565b6001816000016000828254019250508190555050565b600081600001549050919050565b6040518060e0016040528060008152602001600073ffffffffffffffffffffffffffffffffffffffff16815260200160008152602001600073ffffffffffffffffffffffffffffffffffffffff168152602001600081526020016000151581526020016000151581525090565b600080fd5b600073ffffffffffffffffffffffffffffffffffffffff82169050919050565b60006115488261151d565b9050919050565b6115588161153d565b811461156357600080fd5b50565b6000813590506115758161154f565b92915050565b6000819050919050565b61158e8161157b565b811461159957600080fd5b50565b6000813590506115ab81611585565b92915050565b6000806000606084860312156115ca576115c9611518565b5b60006115d886828701611566565b93505060206115e98682870161159c565b92505060406115fa8682870161159c565b9150509250925092565b60006020828403121561161a57611619611518565b5b60006116288482850161159c565b91505092915050565b61163a8161157b565b82525050565b6116498161153d565b82525050565b60008115159050919050565b6116648161164f565b82525050565b600060e08201905061167f600083018a611631565b61168c6020830189611640565b6116996040830188611631565b6116a66060830187611640565b6116b36080830186611631565b6116c060a083018561165b565b6116cd60c083018461165b565b98975050505050505050565b6000602082840312156116ef576116ee611518565b5b60006116fd84828501611566565b91505092915050565b6000806040838503121561171d5761171c611518565b5b600061172b85828601611566565b925050602061173c8582860161159c565b9150509250929050565b61174f8161157b565b82525050565b61175e8161153d565b82525050565b61176d8161164f565b82525050565b60e0820160008201516117896000850182611746565b50602082015161179c6020850182611755565b5060408201516117af6040850182611746565b5060608201516117c26060850182611755565b5060808201516117d56080850182611746565b5060a08201516117e860a0850182611764565b5060c08201516117fb60c0850182611764565b50505050565b600060e0820190506118166000830184611773565b92915050565b60006020820190506118316000830184611631565b92915050565b6000815190506118468161154f565b92915050565b60006020828403121561186257611861611518565b5b600061187084828501611837565b91505092915050565b600082825260208201905092915050565b7f596f7520617265206f776e6572206f66207468697320746f6b656e0000000000600082015250565b60006118c0601b83611879565b91506118cb8261188a565b602082019050919050565b600060208201905081810360008301526118ef816118b3565b9050919050565b600060408201905061190b6000830185611640565b6119186020830184611640565b9392505050565b60008151905061192e81611585565b92915050565b60006020828403121561194a57611949611518565b5b60006119588482850161191f565b91505092915050565b7f5745544820616c6c6f77616e6365206973206e6f7420656e6f75676800000000600082015250565b6000611997601c83611879565b91506119a282611961565b602082019050919050565b600060208201905081810360008301526119c68161198a565b9050919050565b60006040820190506119e26000830185611631565b6119ef6020830184611631565b9392505050565b7f5265656e7472616e637947756172643a207265656e7472616e742063616c6c00600082015250565b6000611a2c601f83611879565b9150611a37826119f6565b602082019050919050565b60006020820190508181036000830152611a5b81611a1f565b9050919050565b7f4f6e6c7920746f6b656e206f776e65722063616e20646f20746869732e000000600082015250565b6000611a98601d83611879565b9150611aa382611a62565b602082019050919050565b60006020820190508181036000830152611ac781611a8b565b9050919050565b7f4c697374696e6720666565206d7573742062652073656e740000000000000000600082015250565b6000611b04601883611879565b9150611b0f82611ace565b602082019050919050565b60006020820190508181036000830152611b3381611af7565b9050919050565b6000606082019050611b4f6000830186611640565b611b5c6020830185611640565b611b696040830184611631565b949350505050565b7f4c697374696e67206e6f7420666f756e64000000000000000000000000000000600082015250565b6000611ba7601183611879565b9150611bb282611b71565b602082019050919050565b60006020820190508181036000830152611bd681611b9a565b9050919050565b7f4974656d20697320616c726561647920736f6c64000000000000000000000000600082015250565b6000611c13601483611879565b9150611c1e82611bdd565b602082019050919050565b60006020820190508181036000830152611c4281611c06565b9050919050565b7f54686973206c697374696e672069732063616e63656c6c656400000000000000600082015250565b6000611c7f601983611879565b9150611c8a82611c49565b602082019050919050565b60006020820190508181036000830152611cae81611c72565b9050919050565b7f596f75206861766520746f2073656e642074686973206c697374696e6727732060008201527f7072696365000000000000000000000000000000000000000000000000000000602082015250565b6000611d11602583611879565b9150611d1c82611cb5565b604082019050919050565b60006020820190508181036000830152611d4081611d04565b9050919050565b7f4f6e6c79206f776e65722063616e20646f207468697320616374696f6e000000600082015250565b6000611d7d601d83611879565b9150611d8882611d47565b602082019050919050565b60006020820190508181036000830152611dac81611d70565b9050919050565b7f4974656d20686173206265656e20616c726561647920736f6c642e0000000000600082015250565b6000611de9601b83611879565b9150611df482611db3565b602082019050919050565b60006020820190508181036000830152611e1881611ddc565b9050919050565b7f4c697374696e6720616c72656164792063616e63656c6c65642e000000000000600082015250565b6000611e55601a83611879565b9150611e6082611e1f565b602082019050919050565b60006020820190508181036000830152611e8481611e48565b9050919050565b7f3020616464726573730000000000000000000000000000000000000000000000600082015250565b6000611ec1600983611879565b9150611ecc82611e8b565b602082019050919050565b60006020820190508181036000830152611ef081611eb4565b9050919050565b7f4e487b7100000000000000000000000000000000000000000000000000000000600052601160045260246000fd5b6000611f318261157b565b91507fffffffffffffffffffffffffffffffffffffffffffffffffffffffffffffffff821415611f6457611f63611ef7565b5b60018201905091905056fea2646970667358221220128b4af4dbf2649fa6c67f2af65d056a6a1cac957b7562ef02b383c6a2d94d0564736f6c634300080b0033",
  "immutableReferences": {},
  "source": "// SPDX-License-Identifier: MIT\r\npragma solidity ^0.8.4;\r\n\r\nimport \"@openzeppelin/contracts/token/ERC20/IERC20.sol\";\r\nimport \"@openzeppelin/contracts/token/ERC20/ERC20.sol\";\r\nimport \"@openzeppelin/contracts/token/ERC721/ERC721.sol\";\r\nimport \"@openzeppelin/contracts/token/ERC721/IERC721.sol\";\r\nimport \"@openzeppelin/contracts/utils/Counters.sol\";\r\nimport \"@openzeppelin/contracts/utils/Strings.sol\";\r\nimport \"@openzeppelin/contracts/security/ReentrancyGuard.sol\";\r\n\r\ncontract Market is ReentrancyGuard {\r\n    using Counters for Counters.Counter;\r\n    Counters.Counter private _listingCount;\r\n    Counters.Counter private _offerCount;\r\n    Counters.Counter private _saleCount;\r\n\r\n    mapping(uint256 => Listing) public marketListings;\r\n    mapping(uint256 => Offer) public offers;\r\n\r\n    uint256 LISTING_PRICE = 0.01 ether;\r\n\r\n    struct Offer {\r\n        uint256 id;\r\n        address userAddress;\r\n        uint256 price;\r\n        address nftContractAdd;\r\n        uint256 tokenId;\r\n        bool fulfilled;\r\n        bool cancelled;\r\n    }\r\n\r\n    struct Listing {\r\n        uint256 listingId;\r\n        address nftContractAdd;\r\n        uint256 tokenId;\r\n        address ownerAdd;\r\n        uint256 price;\r\n        bool isSold;\r\n        bool isCancelled;\r\n    }\r\n\r\n    constructor() payable {\r\n        _listingCount.increment(); // start from 1\r\n        _offerCount.increment(); // start from 1\r\n    }\r\n\r\n    function putOnSale(\r\n        address _nftContract,\r\n        uint256 _tokenId,\r\n        uint256 _price\r\n    ) public payable nonReentrant {\r\n        ERC721 nft = ERC721(_nftContract);\r\n        address tokenOwner = nft.ownerOf(_tokenId);\r\n        require(msg.sender == tokenOwner, \"Only token owner can do this.\");\r\n        require(msg.value == LISTING_PRICE, \"Listing fee must be sent\");\r\n\r\n        nft.transferFrom(msg.sender, address(this), _tokenId);\r\n\r\n        uint256 itemId = _listingCount.current();\r\n        marketListings[itemId] = Listing(\r\n            itemId,\r\n            _nftContract,\r\n            _tokenId,\r\n            payable(msg.sender),\r\n            _price,\r\n            false,\r\n            false\r\n        );\r\n        _listingCount.increment();\r\n\r\n        emit ListingCreated(itemId, msg.sender, _nftContract, _tokenId, _price);\r\n    }\r\n\r\n    function cancelSale(uint256 listingId) public nonReentrant {\r\n        Listing storage listing = marketListings[listingId];\r\n\r\n        require(msg.sender == listing.ownerAdd, \"Only owner can do this action\");\r\n        require(!listing.isSold, \"Item has been already sold.\");\r\n        require(!listing.isCancelled, \"Listing already cancelled.\");\r\n\r\n        listing.isCancelled = true;\r\n\r\n        IERC721(address(listing.nftContractAdd)).transferFrom(address(this), msg.sender, listing.tokenId);\r\n\r\n        emit ListingCancelled(listing.listingId, listing.ownerAdd, listing.nftContractAdd, listing.tokenId);\r\n    }\r\n\r\n    function buyNFT(uint listingId) public payable nonReentrant {\r\n        Listing storage listing = marketListings[listingId];\r\n        require(listing.nftContractAdd != address(0x0), \"Listing not found\");\r\n\r\n        if(listing.isSold) {\r\n            revert(\"Item is already sold\");\r\n        } else if (listing.isCancelled) {\r\n            revert(\"This listing is cancelled\");\r\n        }\r\n\r\n        require(msg.value >= listing.price, \"You have to send this listing's price\");\r\n        \r\n        listing.isSold = true;\r\n        payable(address(listing.ownerAdd)).transfer(listing.price);\r\n        ERC721(listing.nftContractAdd).transferFrom(address(this), msg.sender, listing.tokenId);\r\n\r\n        emit ItemSold(_saleCount.current(), listing.ownerAdd, msg.sender, listing.price);\r\n    }\r\n\r\n    function placeBid(address _nftContractAdd, uint256 _tokenId, uint256 _price) public {\r\n        IERC721 nft = IERC721(_nftContractAdd);\r\n        address tokenOwner = nft.ownerOf(_tokenId);\r\n        require(msg.sender != tokenOwner, \"You are owner of this token\");\r\n\r\n        // @dev First, set WETH allowance for this market contract using WETH contract.\r\n        IERC20 weth = IERC20(address(0xc778417E063141139Fce010982780140Aa0cD5Ab));\r\n        uint256 allowance = weth.allowance(msg.sender, address(this));\r\n        require(allowance >= _price, \"WETH allowance is not enough\");\r\n\r\n        uint256 currentOffer = _offerCount.current();\r\n        _offerCount.increment();\r\n        offers[currentOffer] = Offer(\r\n            currentOffer,\r\n            msg.sender,\r\n            _price,\r\n            _nftContractAdd,\r\n            _tokenId,\r\n            false,\r\n            false\r\n        );\r\n\r\n        emit BidPlaced(currentOffer, msg.sender, _nftContractAdd, _tokenId, _price);\r\n    }\r\n\r\n    // function acceptBid(uint _offerId) public nonReentrant {\r\n    //     Offer storage offer = offers[_offerId];\r\n    //     require(!offer.fulfilled, \"Offer already fulfilled.\");\r\n    //     require(!offer.cancelled, \"Offer cancelled.\");\r\n\r\n    //     IERC721 nft = IERC721(offer.nftContractAdd);\r\n    //     address nftOwner = nft.ownerOf(offer.tokenId);\r\n\r\n    //     /*\r\n    //     * There are two case of accepting an offer: 1- NFT was not listed 2- NFT was already listed\r\n    //     * If the owner address equals the address of this contract, it means NFT already listed\r\n    //     * In this case, we need to find in our `listings` mapping and adjust the actual owner...\r\n    //     */\r\n    //     Listing storage listing;\r\n    //     if(nftOwner == address(this)){\r\n    //         listing = _getListedItem(offer.nftContractAdd, offer.tokenId);\r\n    //         nftOwner = listing.ownerAdd;\r\n    //     }\r\n    //     require(msg.sender == nftOwner, \"Only owner of the token can do this\");\r\n\r\n    //     /*\r\n    //     * TODO: There might be a vulnerability: what if NFT owner removes approval for our contract? Or vice versa?\r\n    //     * In this version, omitting this possibility...\r\n    //     */\r\n    //     IERC20 weth = IERC20(address(0xc778417E063141139Fce010982780140Aa0cD5Ab));\r\n    //     weth.transferFrom(address(offer.userAddress), payable(msg.sender), offer.price);\r\n\r\n    //     if(listing.listingId != 0){\r\n    //         nft.transferFrom(address(this), offer.userAddress, offer.tokenId);\r\n    //         listing.isSold = true;\r\n    //     } else {\r\n    //         nft.transferFrom(nftOwner, offer.userAddress, offer.tokenId);\r\n    //     }\r\n\r\n    //     offer.fulfilled = true;\r\n    //     uint256 currentSale = _saleCount.current();\r\n    //     _saleCount.increment();\r\n\r\n    //     emit ItemSold(currentSale, msg.sender, offer.userAddress, offer.price);\r\n    // }\r\n\r\n    function _getListedItem(address _nftContractAddress, uint256 _tokenId)\r\n        public\r\n        view\r\n        returns (Listing memory item)\r\n    {\r\n        require(_nftContractAddress != address(0x0), \"0 address\");\r\n\r\n        for (uint256 i = 0; i <= _listingCount.current(); i++) {\r\n            if (\r\n                marketListings[i].nftContractAdd == _nftContractAddress &&\r\n                marketListings[i].tokenId == _tokenId &&\r\n                !marketListings[i].isSold &&\r\n                !marketListings[i].isCancelled\r\n            ) {\r\n                return marketListings[i];\r\n            }\r\n        }\r\n\r\n        revert(\"Listing not found\");\r\n    }\r\n\r\n    /**\r\n     * Since we're not using a proxy or sth like that in this version of contract, we transfer listed items to Market contract.\r\n     * So, listed items won't be in the wallet of user.\r\n     * We need to get listed items of user in the application\r\n     *\r\n     * Maybe we can implement a proxy in the future... :O\r\n     */\r\n    function getListedItemsOf(address userAddress) public {}\r\n\r\n    receive() external payable {}\r\n\r\n    fallback() external payable {}\r\n\r\n    event ListingCreated(\r\n        uint256 indexed listingId,\r\n        address indexed owner,\r\n        address indexed nftContract,\r\n        uint256 tokenId,\r\n        uint256 price\r\n    );\r\n\r\n    event ListingCancelled(\r\n        uint256 indexed listingId,\r\n        address indexed owner,\r\n        address indexed nftContract,\r\n        uint256 tokenId\r\n    );\r\n\r\n    event BidPlaced(\r\n        uint256 indexed bidId,\r\n        address indexed bidder,\r\n        address indexed nftContractAdd,\r\n        uint256 tokenId,\r\n        uint256 price\r\n    );\r\n\r\n    event ItemSold(\r\n        uint256 indexed saleCount,\r\n        address indexed seller,\r\n        address indexed buyer,\r\n        uint256 price\r\n    );\r\n}\r\n",
  "sourcePath": "D:\\Projeler\\NFT Marketplace contracts\\contracts\\Market.sol",
  "compiler": {
    "name": "solc",
    "version": "0.8.11+commit.d7f03943.Emscripten.clang"
  },
  "schemaVersion": "3.4.6",
  "updatedAt": "2022-04-12T16:14:28.050Z",
  "networkType": "ethereum",
  "devdoc": {
    "kind": "dev",
    "methods": {},
    "version": 1
  },
  "userdoc": {
    "kind": "user",
    "methods": {
      "getListedItemsOf(address)": {
        "notice": "Since we're not using a proxy or sth like that in this version of contract, we transfer listed items to Market contract. So, listed items won't be in the wallet of user. We need to get listed items of user in the application Maybe we can implement a proxy in the future... :O"
      }
    },
    "version": 1
  }
}